{
  "_format": "hh-sol-artifact-1",
  "contractName": "Artick",
  "sourceName": "contracts/Artick.sol",
  "abi": [
    {
      "inputs": [
        {
          "internalType": "uint256",
          "name": "_feePercent",
          "type": "uint256"
        }
      ],
      "stateMutability": "nonpayable",
      "type": "constructor"
    },
    {
      "anonymous": false,
      "inputs": [
        {
          "indexed": true,
          "internalType": "address",
          "name": "owner",
          "type": "address"
        },
        {
          "indexed": true,
          "internalType": "address",
          "name": "approved",
          "type": "address"
        },
        {
          "indexed": true,
          "internalType": "uint256",
          "name": "tokenId",
          "type": "uint256"
        }
      ],
      "name": "Approval",
      "type": "event"
    },
    {
      "anonymous": false,
      "inputs": [
        {
          "indexed": true,
          "internalType": "address",
          "name": "owner",
          "type": "address"
        },
        {
          "indexed": true,
          "internalType": "address",
          "name": "operator",
          "type": "address"
        },
        {
          "indexed": false,
          "internalType": "bool",
          "name": "approved",
          "type": "bool"
        }
      ],
      "name": "ApprovalForAll",
      "type": "event"
    },
    {
      "anonymous": false,
      "inputs": [
        {
          "indexed": false,
          "internalType": "uint256",
          "name": "TicketId",
          "type": "uint256"
        },
        {
          "indexed": true,
          "internalType": "address",
          "name": "nft",
          "type": "address"
        },
        {
          "indexed": false,
          "internalType": "uint256",
          "name": "tokenId",
          "type": "uint256"
        },
        {
          "indexed": false,
          "internalType": "uint256",
          "name": "price",
          "type": "uint256"
        },
        {
          "indexed": true,
          "internalType": "address",
          "name": "seller",
          "type": "address"
        },
        {
          "indexed": true,
          "internalType": "address",
          "name": "buyer",
          "type": "address"
        }
      ],
      "name": "Bought",
      "type": "event"
    },
    {
      "anonymous": false,
      "inputs": [
        {
          "indexed": false,
          "internalType": "uint256",
          "name": "TicketId",
          "type": "uint256"
        },
        {
          "indexed": true,
          "internalType": "address",
          "name": "nft",
          "type": "address"
        },
        {
          "indexed": false,
          "internalType": "uint256",
          "name": "tokenId",
          "type": "uint256"
        },
        {
          "indexed": false,
          "internalType": "uint256",
          "name": "price",
          "type": "uint256"
        },
        {
          "indexed": true,
          "internalType": "address",
          "name": "seller",
          "type": "address"
        }
      ],
      "name": "OfferedTicket",
      "type": "event"
    },
    {
      "anonymous": false,
      "inputs": [
        {
          "indexed": true,
          "internalType": "address",
          "name": "from",
          "type": "address"
        },
        {
          "indexed": true,
          "internalType": "address",
          "name": "to",
          "type": "address"
        },
        {
          "indexed": true,
          "internalType": "uint256",
          "name": "tokenId",
          "type": "uint256"
        }
      ],
      "name": "Transfer",
      "type": "event"
    },
    {
      "inputs": [
        {
          "internalType": "uint256",
          "name": "",
          "type": "uint256"
        },
        {
          "internalType": "uint256",
          "name": "",
          "type": "uint256"
        }
      ],
      "name": "TicketTaken",
      "outputs": [
        {
          "internalType": "address",
          "name": "",
          "type": "address"
        }
      ],
      "stateMutability": "view",
      "type": "function"
    },
    {
      "inputs": [
        {
          "internalType": "address",
          "name": "to",
          "type": "address"
        },
        {
          "internalType": "uint256",
          "name": "tokenId",
          "type": "uint256"
        }
      ],
      "name": "approve",
      "outputs": [],
      "stateMutability": "nonpayable",
      "type": "function"
    },
    {
      "inputs": [
        {
          "internalType": "address",
          "name": "owner",
          "type": "address"
        }
      ],
      "name": "balanceOf",
      "outputs": [
        {
          "internalType": "uint256",
          "name": "",
          "type": "uint256"
        }
      ],
      "stateMutability": "view",
      "type": "function"
    },
    {
      "inputs": [],
      "name": "feeAccount",
      "outputs": [
        {
          "internalType": "address payable",
          "name": "",
          "type": "address"
        }
      ],
      "stateMutability": "view",
      "type": "function"
    },
    {
      "inputs": [],
      "name": "feePercent",
      "outputs": [
        {
          "internalType": "uint256",
          "name": "",
          "type": "uint256"
        }
      ],
      "stateMutability": "view",
      "type": "function"
    },
    {
      "inputs": [
        {
          "internalType": "uint256",
          "name": "tokenId",
          "type": "uint256"
        }
      ],
      "name": "getApproved",
      "outputs": [
        {
          "internalType": "address",
          "name": "",
          "type": "address"
        }
      ],
      "stateMutability": "view",
      "type": "function"
    },
    {
      "inputs": [
        {
          "internalType": "uint256",
          "name": "_id",
          "type": "uint256"
        }
      ],
      "name": "getOccasion",
      "outputs": [
        {
          "components": [
            {
              "internalType": "uint256",
              "name": "id",
              "type": "uint256"
            },
            {
              "internalType": "string",
              "name": "name",
              "type": "string"
            },
            {
              "internalType": "uint256",
              "name": "cost",
              "type": "uint256"
            },
            {
              "internalType": "uint256",
              "name": "tickets",
              "type": "uint256"
            },
            {
              "internalType": "uint256",
              "name": "maxTickets",
              "type": "uint256"
            },
            {
              "internalType": "string",
              "name": "date",
              "type": "string"
            },
            {
              "internalType": "string",
              "name": "time",
              "type": "string"
            },
            {
              "internalType": "string",
              "name": "location",
              "type": "string"
            },
            {
              "internalType": "string",
              "name": "description",
              "type": "string"
            },
            {
              "internalType": "string",
              "name": "image",
              "type": "string"
            }
          ],
          "internalType": "struct Artick.Occasion",
          "name": "",
          "type": "tuple"
        }
      ],
      "stateMutability": "view",
      "type": "function"
    },
    {
      "inputs": [
        {
          "internalType": "uint256",
          "name": "_occasionId",
          "type": "uint256"
        }
      ],
      "name": "getTicketsForOccasion",
      "outputs": [
        {
          "components": [
            {
              "internalType": "uint256",
              "name": "TicketId",
              "type": "uint256"
            },
            {
              "internalType": "contract IERC721",
              "name": "nft",
              "type": "address"
            },
            {
              "internalType": "uint256",
              "name": "tokenId",
              "type": "uint256"
            },
            {
              "internalType": "uint256",
              "name": "price",
              "type": "uint256"
            },
            {
              "internalType": "uint256",
              "name": "occasionId",
              "type": "uint256"
            },
            {
              "internalType": "address payable",
              "name": "seller",
              "type": "address"
            },
            {
              "internalType": "bool",
              "name": "sold",
              "type": "bool"
            }
          ],
          "internalType": "struct Artick.Ticket[]",
          "name": "",
          "type": "tuple[]"
        }
      ],
      "stateMutability": "view",
      "type": "function"
    },
    {
      "inputs": [
        {
          "internalType": "uint256",
          "name": "_id",
          "type": "uint256"
        }
      ],
      "name": "getTicketsTaken",
      "outputs": [
        {
          "internalType": "uint256[]",
          "name": "",
          "type": "uint256[]"
        }
      ],
      "stateMutability": "view",
      "type": "function"
    },
    {
      "inputs": [
        {
          "internalType": "uint256",
          "name": "_TicketId",
          "type": "uint256"
        }
      ],
      "name": "getTotalPrice",
      "outputs": [
        {
          "internalType": "uint256",
          "name": "",
          "type": "uint256"
        }
      ],
      "stateMutability": "view",
      "type": "function"
    },
    {
      "inputs": [
        {
          "internalType": "uint256",
          "name": "",
          "type": "uint256"
        },
        {
          "internalType": "address",
          "name": "",
          "type": "address"
        }
      ],
      "name": "hasBought",
      "outputs": [
        {
          "internalType": "bool",
          "name": "",
          "type": "bool"
        }
      ],
      "stateMutability": "view",
      "type": "function"
    },
    {
      "inputs": [
        {
          "internalType": "address",
          "name": "owner",
          "type": "address"
        },
        {
          "internalType": "address",
          "name": "operator",
          "type": "address"
        }
      ],
      "name": "isApprovedForAll",
      "outputs": [
        {
          "internalType": "bool",
          "name": "",
          "type": "bool"
        }
      ],
      "stateMutability": "view",
      "type": "function"
    },
    {
      "inputs": [
        {
          "internalType": "uint256",
          "name": "_id",
          "type": "uint256"
        },
        {
          "internalType": "string",
          "name": "_name",
          "type": "string"
        },
        {
          "internalType": "uint256",
          "name": "_cost",
          "type": "uint256"
        },
        {
          "internalType": "uint256",
          "name": "_tickets",
          "type": "uint256"
        },
        {
          "internalType": "uint256",
          "name": "_maxTickets",
          "type": "uint256"
        },
        {
          "internalType": "string",
          "name": "_date",
          "type": "string"
        },
        {
          "internalType": "string",
          "name": "_time",
          "type": "string"
        },
        {
          "internalType": "string",
          "name": "_location",
          "type": "string"
        },
        {
          "internalType": "string",
          "name": "_description",
          "type": "string"
        },
        {
          "internalType": "string",
          "name": "_image",
          "type": "string"
        }
      ],
      "name": "listOccasion",
      "outputs": [],
      "stateMutability": "nonpayable",
      "type": "function"
    },
    {
      "inputs": [
        {
          "internalType": "uint256",
          "name": "_TicketId",
          "type": "uint256"
        },
        {
          "internalType": "contract IERC721",
          "name": "_artick",
          "type": "address"
        },
        {
          "internalType": "uint256",
          "name": "_tokenId",
          "type": "uint256"
        },
        {
          "internalType": "uint256",
          "name": "_price",
          "type": "uint256"
        },
        {
          "internalType": "uint256",
          "name": "_occasionId",
          "type": "uint256"
        },
        {
          "internalType": "address",
          "name": "_seller",
          "type": "address"
        },
        {
          "internalType": "bool",
          "name": "_sold",
          "type": "bool"
        }
      ],
      "name": "makeTicket",
      "outputs": [],
      "stateMutability": "nonpayable",
      "type": "function"
    },
    {
      "inputs": [
        {
          "internalType": "uint256",
          "name": "_TicketId",
          "type": "uint256"
        },
        {
          "internalType": "uint256",
          "name": "_ticket",
          "type": "uint256"
        },
        {
          "internalType": "uint256",
          "name": "_tokenId",
          "type": "uint256"
        }
      ],
      "name": "mint",
      "outputs": [],
      "stateMutability": "payable",
      "type": "function"
    },
    {
      "inputs": [],
      "name": "name",
      "outputs": [
        {
          "internalType": "string",
          "name": "",
          "type": "string"
        }
      ],
      "stateMutability": "view",
      "type": "function"
    },
    {
      "inputs": [],
      "name": "owner",
      "outputs": [
        {
          "internalType": "address",
          "name": "",
          "type": "address"
        }
      ],
      "stateMutability": "view",
      "type": "function"
    },
    {
      "inputs": [
        {
          "internalType": "uint256",
          "name": "tokenId",
          "type": "uint256"
        }
      ],
      "name": "ownerOf",
      "outputs": [
        {
          "internalType": "address",
          "name": "",
          "type": "address"
        }
      ],
      "stateMutability": "view",
      "type": "function"
    },
    {
      "inputs": [
        {
          "internalType": "uint256",
          "name": "_TicketId",
          "type": "uint256"
        }
      ],
      "name": "purchaseTicket",
      "outputs": [],
      "stateMutability": "payable",
      "type": "function"
    },
    {
      "inputs": [
        {
          "internalType": "address",
          "name": "from",
          "type": "address"
        },
        {
          "internalType": "address",
          "name": "to",
          "type": "address"
        },
        {
          "internalType": "uint256",
          "name": "tokenId",
          "type": "uint256"
        }
      ],
      "name": "safeTransferFrom",
      "outputs": [],
      "stateMutability": "nonpayable",
      "type": "function"
    },
    {
      "inputs": [
        {
          "internalType": "address",
          "name": "from",
          "type": "address"
        },
        {
          "internalType": "address",
          "name": "to",
          "type": "address"
        },
        {
          "internalType": "uint256",
          "name": "tokenId",
          "type": "uint256"
        },
        {
          "internalType": "bytes",
          "name": "data",
          "type": "bytes"
        }
      ],
      "name": "safeTransferFrom",
      "outputs": [],
      "stateMutability": "nonpayable",
      "type": "function"
    },
    {
      "inputs": [
        {
          "internalType": "uint256",
          "name": "_tokenId",
          "type": "uint256"
        },
        {
          "internalType": "uint256",
          "name": "_newPrice",
          "type": "uint256"
        },
        {
          "components": [
            {
              "internalType": "uint256",
              "name": "TicketId",
              "type": "uint256"
            },
            {
              "internalType": "contract IERC721",
              "name": "nft",
              "type": "address"
            },
            {
              "internalType": "uint256",
              "name": "tokenId",
              "type": "uint256"
            },
            {
              "internalType": "uint256",
              "name": "price",
              "type": "uint256"
            },
            {
              "internalType": "uint256",
              "name": "occasionId",
              "type": "uint256"
            },
            {
              "internalType": "address payable",
              "name": "seller",
              "type": "address"
            },
            {
              "internalType": "bool",
              "name": "sold",
              "type": "bool"
            }
          ],
          "internalType": "struct Artick.Ticket",
          "name": "ticket",
          "type": "tuple"
        }
      ],
      "name": "sellTicket",
      "outputs": [],
      "stateMutability": "nonpayable",
      "type": "function"
    },
    {
      "inputs": [
        {
          "internalType": "address",
          "name": "operator",
          "type": "address"
        },
        {
          "internalType": "bool",
          "name": "approved",
          "type": "bool"
        }
      ],
      "name": "setApprovalForAll",
      "outputs": [],
      "stateMutability": "nonpayable",
      "type": "function"
    },
    {
      "inputs": [
        {
          "internalType": "bytes4",
          "name": "interfaceId",
          "type": "bytes4"
        }
      ],
      "name": "supportsInterface",
      "outputs": [
        {
          "internalType": "bool",
          "name": "",
          "type": "bool"
        }
      ],
      "stateMutability": "view",
      "type": "function"
    },
    {
      "inputs": [],
      "name": "symbol",
      "outputs": [
        {
          "internalType": "string",
          "name": "",
          "type": "string"
        }
      ],
      "stateMutability": "view",
      "type": "function"
    },
    {
      "inputs": [
        {
          "internalType": "uint256",
          "name": "",
          "type": "uint256"
        }
      ],
      "name": "tickets",
      "outputs": [
        {
          "internalType": "uint256",
          "name": "TicketId",
          "type": "uint256"
        },
        {
          "internalType": "contract IERC721",
          "name": "nft",
          "type": "address"
        },
        {
          "internalType": "uint256",
          "name": "tokenId",
          "type": "uint256"
        },
        {
          "internalType": "uint256",
          "name": "price",
          "type": "uint256"
        },
        {
          "internalType": "uint256",
          "name": "occasionId",
          "type": "uint256"
        },
        {
          "internalType": "address payable",
          "name": "seller",
          "type": "address"
        },
        {
          "internalType": "bool",
          "name": "sold",
          "type": "bool"
        }
      ],
      "stateMutability": "view",
      "type": "function"
    },
    {
      "inputs": [
        {
          "internalType": "uint256",
          "name": "tokenId",
          "type": "uint256"
        }
      ],
      "name": "tokenURI",
      "outputs": [
        {
          "internalType": "string",
          "name": "",
          "type": "string"
        }
      ],
      "stateMutability": "view",
      "type": "function"
    },
    {
      "inputs": [],
      "name": "totalOccasions",
      "outputs": [
        {
          "internalType": "uint256",
          "name": "",
          "type": "uint256"
        }
      ],
      "stateMutability": "view",
      "type": "function"
    },
    {
      "inputs": [],
      "name": "totalSupply",
      "outputs": [
        {
          "internalType": "uint256",
          "name": "",
          "type": "uint256"
        }
      ],
      "stateMutability": "view",
      "type": "function"
    },
    {
      "inputs": [
        {
          "internalType": "address",
          "name": "from",
          "type": "address"
        },
        {
          "internalType": "address",
          "name": "to",
          "type": "address"
        },
        {
          "internalType": "uint256",
          "name": "tokenId",
          "type": "uint256"
        }
      ],
      "name": "transferFrom",
      "outputs": [],
      "stateMutability": "nonpayable",
      "type": "function"
    },
    {
      "inputs": [],
      "name": "withdraw",
      "outputs": [],
      "stateMutability": "nonpayable",
      "type": "function"
    }
  ],
  "bytecode": "0x60c06040523480156200001157600080fd5b50604051620056513803806200565183398181016040528101906200003791906200018d565b6040518060400160405280600681526020017f41727469636b00000000000000000000000000000000000000000000000000008152506040518060400160405280600381526020017f41544b00000000000000000000000000000000000000000000000000000000008152508160009081620000b491906200042f565b508060019081620000c691906200042f565b50505033600660006101000a81548173ffffffffffffffffffffffffffffffffffffffff021916908373ffffffffffffffffffffffffffffffffffffffff1602179055503373ffffffffffffffffffffffffffffffffffffffff1660808173ffffffffffffffffffffffffffffffffffffffff16815250508060a081815250505062000516565b600080fd5b6000819050919050565b620001678162000152565b81146200017357600080fd5b50565b60008151905062000187816200015c565b92915050565b600060208284031215620001a657620001a56200014d565b5b6000620001b68482850162000176565b91505092915050565b600081519050919050565b7f4e487b7100000000000000000000000000000000000000000000000000000000600052604160045260246000fd5b7f4e487b7100000000000000000000000000000000000000000000000000000000600052602260045260246000fd5b600060028204905060018216806200024157607f821691505b602082108103620002575762000256620001f9565b5b50919050565b60008190508160005260206000209050919050565b60006020601f8301049050919050565b600082821b905092915050565b600060088302620002c17fffffffffffffffffffffffffffffffffffffffffffffffffffffffffffffffff8262000282565b620002cd868362000282565b95508019841693508086168417925050509392505050565b6000819050919050565b6000620003106200030a620003048462000152565b620002e5565b62000152565b9050919050565b6000819050919050565b6200032c83620002ef565b620003446200033b8262000317565b8484546200028f565b825550505050565b600090565b6200035b6200034c565b6200036881848462000321565b505050565b5b8181101562000390576200038460008262000351565b6001810190506200036e565b5050565b601f821115620003df57620003a9816200025d565b620003b48462000272565b81016020851015620003c4578190505b620003dc620003d38562000272565b8301826200036d565b50505b505050565b600082821c905092915050565b60006200040460001984600802620003e4565b1980831691505092915050565b60006200041f8383620003f1565b9150826002028217905092915050565b6200043a82620001bf565b67ffffffffffffffff811115620004565762000455620001ca565b5b62000462825462000228565b6200046f82828562000394565b600060209050601f831160018114620004a7576000841562000492578287015190505b6200049e858262000411565b8655506200050e565b601f198416620004b7866200025d565b60005b82811015620004e157848901518255600182019150602085019450602081019050620004ba565b86831015620005015784890151620004fd601f891682620003f1565b8355505b6001600288020188555050505b505050505050565b60805160a0516151076200054a600039600081816118fe0152611e6d0152600081816114610152611c0001526151076000f3fe6080604052600436106101d85760003560e01c806365e17c9d11610102578063a22cb46511610095578063ca7dd37511610064578063ca7dd375146106e0578063d2367aae1461071d578063e4f84f4514610746578063e985e9c514610783576101d8565b8063a22cb46514610635578063b88d4fde1461065e578063b948348c14610687578063c87b56dd146106a3576101d8565b80638da5cb5b116100d15780638da5cb5b14610577578063953865c1146105a257806395d89b41146105cd5780639cb04aef146105f8576101d8565b806365e17c9d146104a757806370a08231146104d257806374bc86561461050f5780637fd6f15c1461054c576101d8565b806323b872dd1161017a57806342842e0e1161014957806342842e0e146103d557806350b44712146103fe5780636186d357146104415780636352211e1461046a576101d8565b806323b872dd1461031b578063350e957f146103445780633ccfd60b146103815780633e84a97a14610398576101d8565b8063081812fc116101b6578063081812fc14610261578063095ea7b31461029e57806314200949146102c757806318160ddd146102f0576101d8565b806301ffc9a7146101dd57806302acc94b1461021a57806306fdde0314610236575b600080fd5b3480156101e957600080fd5b5061020460048036038101906101ff919061324d565b6107c0565b6040516102119190613295565b60405180910390f35b610234600480360381019061022f91906132e6565b6108a2565b005b34801561024257600080fd5b5061024b610ad6565b60405161025891906133c9565b60405180910390f35b34801561026d57600080fd5b50610288600480360381019061028391906133eb565b610b68565b6040516102959190613459565b60405180910390f35b3480156102aa57600080fd5b506102c560048036038101906102c091906134a0565b610bae565b005b3480156102d357600080fd5b506102ee60048036038101906102e99190613615565b610cc5565b005b3480156102fc57600080fd5b50610305610e4f565b60405161031291906137ab565b60405180910390f35b34801561032757600080fd5b50610342600480360381019061033d91906137c6565b610e55565b005b34801561035057600080fd5b5061036b60048036038101906103669190613819565b610eb5565b6040516103789190613459565b60405180910390f35b34801561038d57600080fd5b50610396610ef7565b005b3480156103a457600080fd5b506103bf60048036038101906103ba91906133eb565b610fec565b6040516103cc9190613917565b60405180910390f35b3480156103e157600080fd5b506103fc60048036038101906103f791906137c6565b611057565b005b34801561040a57600080fd5b50610425600480360381019061042091906133eb565b611077565b60405161043897969594939291906139b9565b60405180910390f35b34801561044d57600080fd5b5061046860048036038101906104639190613a92565b611106565b005b34801561047657600080fd5b50610491600480360381019061048c91906133eb565b6113d9565b60405161049e9190613459565b60405180910390f35b3480156104b357600080fd5b506104bc61145f565b6040516104c99190613b34565b60405180910390f35b3480156104de57600080fd5b506104f960048036038101906104f49190613b4f565b611483565b60405161050691906137ab565b60405180910390f35b34801561051b57600080fd5b50610536600480360381019061053191906133eb565b61153a565b6040516105439190613cc3565b60405180910390f35b34801561055857600080fd5b506105616118fc565b60405161056e91906137ab565b60405180910390f35b34801561058357600080fd5b5061058c611920565b6040516105999190613459565b60405180910390f35b3480156105ae57600080fd5b506105b7611946565b6040516105c491906137ab565b60405180910390f35b3480156105d957600080fd5b506105e261194c565b6040516105ef91906133c9565b60405180910390f35b34801561060457600080fd5b5061061f600480360381019061061a9190613ce5565b6119de565b60405161062c9190613295565b60405180910390f35b34801561064157600080fd5b5061065c60048036038101906106579190613d25565b611a0d565b005b34801561066a57600080fd5b5061068560048036038101906106809190613e06565b611a23565b005b6106a1600480360381019061069c91906133eb565b611a85565b005b3480156106af57600080fd5b506106ca60048036038101906106c591906133eb565b611dff565b6040516106d791906133c9565b60405180910390f35b3480156106ec57600080fd5b50610707600480360381019061070291906133eb565b611e67565b60405161071491906137ab565b60405180910390f35b34801561072957600080fd5b50610744600480360381019061073f9190613f6e565b611eca565b005b34801561075257600080fd5b5061076d600480360381019061076891906133eb565b61203e565b60405161077a919061412c565b60405180910390f35b34801561078f57600080fd5b506107aa60048036038101906107a5919061414e565b6122c1565b6040516107b79190613295565b60405180910390f35b60007f80ac58cd000000000000000000000000000000000000000000000000000000007bffffffffffffffffffffffffffffffffffffffffffffffffffffffff1916827bffffffffffffffffffffffffffffffffffffffffffffffffffffffff1916148061088b57507f5b5e139f000000000000000000000000000000000000000000000000000000007bffffffffffffffffffffffffffffffffffffffffffffffffffffffff1916827bffffffffffffffffffffffffffffffffffffffffffffffffffffffff1916145b8061089b575061089a82612355565b5b9050919050565b600083036108af57600080fd5b6008548311156108be57600080fd5b600b6000848152602001908152602001600020600201543410156108e157600080fd5b600073ffffffffffffffffffffffffffffffffffffffff16600c6000858152602001908152602001600020600084815260200190815260200160002060009054906101000a900473ffffffffffffffffffffffffffffffffffffffff1673ffffffffffffffffffffffffffffffffffffffff161461095e57600080fd5b6001600b6000858152602001908152602001600020600301600082825461098591906141bd565b925050819055506001600e600085815260200190815260200160002060003373ffffffffffffffffffffffffffffffffffffffff1673ffffffffffffffffffffffffffffffffffffffff16815260200190815260200160002060006101000a81548160ff02191690831515021790555033600c6000858152602001908152602001600020600084815260200190815260200160002060006101000a81548173ffffffffffffffffffffffffffffffffffffffff021916908373ffffffffffffffffffffffffffffffffffffffff160217905550600d600084815260200190815260200160002082908060018154018082558091505060019003906000526020600020016000909190919091505582600a600060095481526020019081526020016000206000018190555060096000815480929190610ac2906141f1565b9190505550610ad133826123bf565b505050565b606060008054610ae590614268565b80601f0160208091040260200160405190810160405280929190818152602001828054610b1190614268565b8015610b5e5780601f10610b3357610100808354040283529160200191610b5e565b820191906000526020600020905b815481529060010190602001808311610b4157829003601f168201915b5050505050905090565b6000610b73826123dd565b6004600083815260200190815260200160002060009054906101000a900473ffffffffffffffffffffffffffffffffffffffff169050919050565b6000610bb9826113d9565b90508073ffffffffffffffffffffffffffffffffffffffff168373ffffffffffffffffffffffffffffffffffffffff1603610c29576040517f08c379a0000000000000000000000000000000000000000000000000000000008152600401610c209061430b565b60405180910390fd5b8073ffffffffffffffffffffffffffffffffffffffff16610c48612428565b73ffffffffffffffffffffffffffffffffffffffff161480610c775750610c7681610c71612428565b6122c1565b5b610cb6576040517f08c379a0000000000000000000000000000000000000000000000000000000008152600401610cad9061439d565b60405180910390fd5b610cc08383612430565b505050565b600660009054906101000a900473ffffffffffffffffffffffffffffffffffffffff1673ffffffffffffffffffffffffffffffffffffffff163373ffffffffffffffffffffffffffffffffffffffff1614610d1f57600080fd5b60086000815480929190610d32906141f1565b91905055506040518061014001604052808b81526020018a815260200189815260200188815260200187815260200186815260200185815260200184815260200183815260200182815250600b60006008548152602001908152602001600020600082015181600001556020820151816001019081610db1919061455f565b5060408201518160020155606082015181600301556080820151816004015560a0820151816005019081610de5919061455f565b5060c0820151816006019081610dfb919061455f565b5060e0820151816007019081610e11919061455f565b50610100820151816008019081610e28919061455f565b50610120820151816009019081610e3f919061455f565b5090505050505050505050505050565b60095481565b610e66610e60612428565b826124e9565b610ea5576040517f08c379a0000000000000000000000000000000000000000000000000000000008152600401610e9c906146a3565b60405180910390fd5b610eb083838361257e565b505050565b600c6020528160005260406000206020528060005260406000206000915091509054906101000a900473ffffffffffffffffffffffffffffffffffffffff1681565b600660009054906101000a900473ffffffffffffffffffffffffffffffffffffffff1673ffffffffffffffffffffffffffffffffffffffff163373ffffffffffffffffffffffffffffffffffffffff1614610f5157600080fd5b6000600660009054906101000a900473ffffffffffffffffffffffffffffffffffffffff1673ffffffffffffffffffffffffffffffffffffffff1647604051610f99906146f4565b60006040518083038185875af1925050503d8060008114610fd6576040519150601f19603f3d011682016040523d82523d6000602084013e610fdb565b606091505b5050905080610fe957600080fd5b50565b6060600d600083815260200190815260200160002080548060200260200160405190810160405280929190818152602001828054801561104b57602002820191906000526020600020905b815481526020019060010190808311611037575b50505050509050919050565b61107283838360405180602001604052806000815250611a23565b505050565b600a6020528060005260406000206000915090508060000154908060010160009054906101000a900473ffffffffffffffffffffffffffffffffffffffff16908060020154908060030154908060040154908060050160009054906101000a900473ffffffffffffffffffffffffffffffffffffffff16908060050160149054906101000a900460ff16905087565b600660009054906101000a900473ffffffffffffffffffffffffffffffffffffffff1673ffffffffffffffffffffffffffffffffffffffff163373ffffffffffffffffffffffffffffffffffffffff161461116057600080fd5b600084116111a3576040517f08c379a000000000000000000000000000000000000000000000000000000000815260040161119a90614755565b60405180910390fd5b600760008154809291906111b6906141f1565b91905055506040518060e001604052808881526020013073ffffffffffffffffffffffffffffffffffffffff168152602001868152602001858152602001848152602001600660009054906101000a900473ffffffffffffffffffffffffffffffffffffffff1673ffffffffffffffffffffffffffffffffffffffff16815260200160001515815250600a600060075481526020019081526020016000206000820151816000015560208201518160010160006101000a81548173ffffffffffffffffffffffffffffffffffffffff021916908373ffffffffffffffffffffffffffffffffffffffff16021790555060408201518160020155606082015181600301556080820151816004015560a08201518160050160006101000a81548173ffffffffffffffffffffffffffffffffffffffff021916908373ffffffffffffffffffffffffffffffffffffffff16021790555060c08201518160050160146101000a81548160ff021916908315150217905550905050600660009054906101000a900473ffffffffffffffffffffffffffffffffffffffff1673ffffffffffffffffffffffffffffffffffffffff163073ffffffffffffffffffffffffffffffffffffffff167f408c2ed0ccf18167c46bb0f14a75ceba209620d477b47783af0eed23639694ce89600a6000600754815260200190815260200160002060020154886040516113c893929190614775565b60405180910390a350505050505050565b6000806113e583612877565b9050600073ffffffffffffffffffffffffffffffffffffffff168173ffffffffffffffffffffffffffffffffffffffff1603611456576040517f08c379a000000000000000000000000000000000000000000000000000000000815260040161144d906147f8565b60405180910390fd5b80915050919050565b7f000000000000000000000000000000000000000000000000000000000000000081565b60008073ffffffffffffffffffffffffffffffffffffffff168273ffffffffffffffffffffffffffffffffffffffff16036114f3576040517f08c379a00000000000000000000000000000000000000000000000000000000081526004016114ea9061488a565b60405180910390fd5b600360008373ffffffffffffffffffffffffffffffffffffffff1673ffffffffffffffffffffffffffffffffffffffff168152602001908152602001600020549050919050565b611542613123565b600b6000838152602001908152602001600020604051806101400160405290816000820154815260200160018201805461157b90614268565b80601f01602080910402602001604051908101604052809291908181526020018280546115a790614268565b80156115f45780601f106115c9576101008083540402835291602001916115f4565b820191906000526020600020905b8154815290600101906020018083116115d757829003601f168201915b5050505050815260200160028201548152602001600382015481526020016004820154815260200160058201805461162b90614268565b80601f016020809104026020016040519081016040528092919081815260200182805461165790614268565b80156116a45780601f10611679576101008083540402835291602001916116a4565b820191906000526020600020905b81548152906001019060200180831161168757829003601f168201915b505050505081526020016006820180546116bd90614268565b80601f01602080910402602001604051908101604052809291908181526020018280546116e990614268565b80156117365780601f1061170b57610100808354040283529160200191611736565b820191906000526020600020905b81548152906001019060200180831161171957829003601f168201915b5050505050815260200160078201805461174f90614268565b80601f016020809104026020016040519081016040528092919081815260200182805461177b90614268565b80156117c85780601f1061179d576101008083540402835291602001916117c8565b820191906000526020600020905b8154815290600101906020018083116117ab57829003601f168201915b505050505081526020016008820180546117e190614268565b80601f016020809104026020016040519081016040528092919081815260200182805461180d90614268565b801561185a5780601f1061182f5761010080835404028352916020019161185a565b820191906000526020600020905b81548152906001019060200180831161183d57829003601f168201915b5050505050815260200160098201805461187390614268565b80601f016020809104026020016040519081016040528092919081815260200182805461189f90614268565b80156118ec5780601f106118c1576101008083540402835291602001916118ec565b820191906000526020600020905b8154815290600101906020018083116118cf57829003601f168201915b5050505050815250509050919050565b7f000000000000000000000000000000000000000000000000000000000000000081565b600660009054906101000a900473ffffffffffffffffffffffffffffffffffffffff1681565b60085481565b60606001805461195b90614268565b80601f016020809104026020016040519081016040528092919081815260200182805461198790614268565b80156119d45780601f106119a9576101008083540402835291602001916119d4565b820191906000526020600020905b8154815290600101906020018083116119b757829003601f168201915b5050505050905090565b600e6020528160005260406000206020528060005260406000206000915091509054906101000a900460ff1681565b611a1f611a18612428565b83836128b4565b5050565b611a34611a2e612428565b836124e9565b611a73576040517f08c379a0000000000000000000000000000000000000000000000000000000008152600401611a6a906146a3565b60405180910390fd5b611a7f84848484612a20565b50505050565b6000611a9082611e67565b90506000600a60008481526020019081526020016000209050600083118015611abb57506007548311155b611afa576040517f08c379a0000000000000000000000000000000000000000000000000000000008152600401611af1906148f6565b60405180910390fd5b81341015611b3d576040517f08c379a0000000000000000000000000000000000000000000000000000000008152600401611b3490614988565b60405180910390fd5b8060050160149054906101000a900460ff1615611b8f576040517f08c379a0000000000000000000000000000000000000000000000000000000008152600401611b86906149f4565b60405180910390fd5b8060050160009054906101000a900473ffffffffffffffffffffffffffffffffffffffff1673ffffffffffffffffffffffffffffffffffffffff166108fc82600301549081150290604051600060405180830381858888f19350505050158015611bfd573d6000803e3d6000fd5b507f000000000000000000000000000000000000000000000000000000000000000073ffffffffffffffffffffffffffffffffffffffff166108fc826003015484611c4891906141bd565b9081150290604051600060405180830381858888f19350505050158015611c73573d6000803e3d6000fd5b5060018160050160146101000a81548160ff0219169083151502179055508060010160009054906101000a900473ffffffffffffffffffffffffffffffffffffffff1673ffffffffffffffffffffffffffffffffffffffff166323b872dd303384600201546040518463ffffffff1660e01b8152600401611cf693929190614a14565b600060405180830381600087803b158015611d1057600080fd5b505af1158015611d24573d6000803e3d6000fd5b505050503373ffffffffffffffffffffffffffffffffffffffff168160050160009054906101000a900473ffffffffffffffffffffffffffffffffffffffff1673ffffffffffffffffffffffffffffffffffffffff168260010160009054906101000a900473ffffffffffffffffffffffffffffffffffffffff1673ffffffffffffffffffffffffffffffffffffffff167f8b4c9c8a607d67b321582dd8461041b1dc2ceeca70c8b7f37f8e02095cf2e76d60075485600201548660030154604051611df293929190614775565b60405180910390a4505050565b6060611e0a826123dd565b6000611e14612a7c565b90506000815111611e345760405180602001604052806000815250611e5f565b80611e3e84612a93565b604051602001611e4f929190614a87565b6040516020818303038152906040525b915050919050565b600060647f00000000000000000000000000000000000000000000000000000000000000006064611e989190614aab565b600a600085815260200190815260200160002060030154611eb99190614adf565b611ec39190614b50565b9050919050565b8060a0015173ffffffffffffffffffffffffffffffffffffffff163373ffffffffffffffffffffffffffffffffffffffff1614611f3c576040517f08c379a0000000000000000000000000000000000000000000000000000000008152600401611f3390614bcd565b60405180910390fd5b8060c0015115611f81576040517f08c379a0000000000000000000000000000000000000000000000000000000008152600401611f7890614c39565b60405180910390fd5b81600a600085815260200190815260200160002060030181905550611fa7333085610e55565b3373ffffffffffffffffffffffffffffffffffffffff168160a0015173ffffffffffffffffffffffffffffffffffffffff16826020015173ffffffffffffffffffffffffffffffffffffffff167f8b4c9c8a607d67b321582dd8461041b1dc2ceeca70c8b7f37f8e02095cf2e76d6007548560400151866060015160405161203193929190614775565b60405180910390a4505050565b606060008211801561205257506008548211155b612091576040517f08c379a000000000000000000000000000000000000000000000000000000000815260040161208890614ca5565b60405180910390fd5b600080600190505b60075481116120e15783600a600083815260200190815260200160002060040154036120ce5781806120ca906141f1565b9250505b80806120d9906141f1565b915050612099565b5060008167ffffffffffffffff8111156120fe576120fd6134ea565b5b60405190808252806020026020018201604052801561213757816020015b612124613176565b81526020019060019003908161211c5790505b509050600080600190505b60075481116122b55785600a600083815260200190815260200160002060040154036122a257600a60008281526020019081526020016000206040518060e0016040529081600082015481526020016001820160009054906101000a900473ffffffffffffffffffffffffffffffffffffffff1673ffffffffffffffffffffffffffffffffffffffff1673ffffffffffffffffffffffffffffffffffffffff1681526020016002820154815260200160038201548152602001600482015481526020016005820160009054906101000a900473ffffffffffffffffffffffffffffffffffffffff1673ffffffffffffffffffffffffffffffffffffffff1673ffffffffffffffffffffffffffffffffffffffff1681526020016005820160149054906101000a900460ff16151515158152505083838151811061228857612287614cc5565b5b6020026020010181905250818061229e906141f1565b9250505b80806122ad906141f1565b915050612142565b50819350505050919050565b6000600560008473ffffffffffffffffffffffffffffffffffffffff1673ffffffffffffffffffffffffffffffffffffffff16815260200190815260200160002060008373ffffffffffffffffffffffffffffffffffffffff1673ffffffffffffffffffffffffffffffffffffffff16815260200190815260200160002060009054906101000a900460ff16905092915050565b60007f01ffc9a7000000000000000000000000000000000000000000000000000000007bffffffffffffffffffffffffffffffffffffffffffffffffffffffff1916827bffffffffffffffffffffffffffffffffffffffffffffffffffffffff1916149050919050565b6123d9828260405180602001604052806000815250612b61565b5050565b6123e681612bbc565b612425576040517f08c379a000000000000000000000000000000000000000000000000000000000815260040161241c906147f8565b60405180910390fd5b50565b600033905090565b816004600083815260200190815260200160002060006101000a81548173ffffffffffffffffffffffffffffffffffffffff021916908373ffffffffffffffffffffffffffffffffffffffff160217905550808273ffffffffffffffffffffffffffffffffffffffff166124a3836113d9565b73ffffffffffffffffffffffffffffffffffffffff167f8c5be1e5ebec7d5bd14f71427d1e84f3dd0314c0f7b2291e5b200ac8c7c3b92560405160405180910390a45050565b6000806124f5836113d9565b90508073ffffffffffffffffffffffffffffffffffffffff168473ffffffffffffffffffffffffffffffffffffffff161480612537575061253681856122c1565b5b8061257557508373ffffffffffffffffffffffffffffffffffffffff1661255d84610b68565b73ffffffffffffffffffffffffffffffffffffffff16145b91505092915050565b8273ffffffffffffffffffffffffffffffffffffffff1661259e826113d9565b73ffffffffffffffffffffffffffffffffffffffff16146125f4576040517f08c379a00000000000000000000000000000000000000000000000000000000081526004016125eb90614d66565b60405180910390fd5b600073ffffffffffffffffffffffffffffffffffffffff168273ffffffffffffffffffffffffffffffffffffffff1603612663576040517f08c379a000000000000000000000000000000000000000000000000000000000815260040161265a90614df8565b60405180910390fd5b6126708383836001612bfd565b8273ffffffffffffffffffffffffffffffffffffffff16612690826113d9565b73ffffffffffffffffffffffffffffffffffffffff16146126e6576040517f08c379a00000000000000000000000000000000000000000000000000000000081526004016126dd90614d66565b60405180910390fd5b6004600082815260200190815260200160002060006101000a81549073ffffffffffffffffffffffffffffffffffffffff02191690556001600360008573ffffffffffffffffffffffffffffffffffffffff1673ffffffffffffffffffffffffffffffffffffffff168152602001908152602001600020600082825403925050819055506001600360008473ffffffffffffffffffffffffffffffffffffffff1673ffffffffffffffffffffffffffffffffffffffff16815260200190815260200160002060008282540192505081905550816002600083815260200190815260200160002060006101000a81548173ffffffffffffffffffffffffffffffffffffffff021916908373ffffffffffffffffffffffffffffffffffffffff160217905550808273ffffffffffffffffffffffffffffffffffffffff168473ffffffffffffffffffffffffffffffffffffffff167fddf252ad1be2c89b69c2b068fc378daa952ba7f163c4a11628f55a4df523b3ef60405160405180910390a46128728383836001612c03565b505050565b60006002600083815260200190815260200160002060009054906101000a900473ffffffffffffffffffffffffffffffffffffffff169050919050565b8173ffffffffffffffffffffffffffffffffffffffff168373ffffffffffffffffffffffffffffffffffffffff1603612922576040517f08c379a000000000000000000000000000000000000000000000000000000000815260040161291990614e64565b60405180910390fd5b80600560008573ffffffffffffffffffffffffffffffffffffffff1673ffffffffffffffffffffffffffffffffffffffff16815260200190815260200160002060008473ffffffffffffffffffffffffffffffffffffffff1673ffffffffffffffffffffffffffffffffffffffff16815260200190815260200160002060006101000a81548160ff0219169083151502179055508173ffffffffffffffffffffffffffffffffffffffff168373ffffffffffffffffffffffffffffffffffffffff167f17307eab39ab6107e8899845ad3d59bd9653f200f220920489ca2b5937696c3183604051612a139190613295565b60405180910390a3505050565b612a2b84848461257e565b612a3784848484612c09565b612a76576040517f08c379a0000000000000000000000000000000000000000000000000000000008152600401612a6d90614ef6565b60405180910390fd5b50505050565b606060405180602001604052806000815250905090565b606060006001612aa284612d90565b01905060008167ffffffffffffffff811115612ac157612ac06134ea565b5b6040519080825280601f01601f191660200182016040528015612af35781602001600182028036833780820191505090505b509050600082602001820190505b600115612b56578080600190039150507f3031323334353637383961626364656600000000000000000000000000000000600a86061a8153600a8581612b4a57612b49614b21565b5b04945060008503612b01575b819350505050919050565b612b6b8383612ee3565b612b786000848484612c09565b612bb7576040517f08c379a0000000000000000000000000000000000000000000000000000000008152600401612bae90614ef6565b60405180910390fd5b505050565b60008073ffffffffffffffffffffffffffffffffffffffff16612bde83612877565b73ffffffffffffffffffffffffffffffffffffffff1614159050919050565b50505050565b50505050565b6000612c2a8473ffffffffffffffffffffffffffffffffffffffff16613100565b15612d83578373ffffffffffffffffffffffffffffffffffffffff1663150b7a02612c53612428565b8786866040518563ffffffff1660e01b8152600401612c759493929190614f6b565b6020604051808303816000875af1925050508015612cb157506040513d601f19601f82011682018060405250810190612cae9190614fcc565b60015b612d33573d8060008114612ce1576040519150601f19603f3d011682016040523d82523d6000602084013e612ce6565b606091505b506000815103612d2b576040517f08c379a0000000000000000000000000000000000000000000000000000000008152600401612d2290614ef6565b60405180910390fd5b805181602001fd5b63150b7a0260e01b7bffffffffffffffffffffffffffffffffffffffffffffffffffffffff1916817bffffffffffffffffffffffffffffffffffffffffffffffffffffffff191614915050612d88565b600190505b949350505050565b600080600090507a184f03e93ff9f4daa797ed6e38ed64bf6a1f0100000000000000008310612dee577a184f03e93ff9f4daa797ed6e38ed64bf6a1f0100000000000000008381612de457612de3614b21565b5b0492506040810190505b6d04ee2d6d415b85acef81000000008310612e2b576d04ee2d6d415b85acef81000000008381612e2157612e20614b21565b5b0492506020810190505b662386f26fc100008310612e5a57662386f26fc100008381612e5057612e4f614b21565b5b0492506010810190505b6305f5e1008310612e83576305f5e1008381612e7957612e78614b21565b5b0492506008810190505b6127108310612ea8576127108381612e9e57612e9d614b21565b5b0492506004810190505b60648310612ecb5760648381612ec157612ec0614b21565b5b0492506002810190505b600a8310612eda576001810190505b80915050919050565b600073ffffffffffffffffffffffffffffffffffffffff168273ffffffffffffffffffffffffffffffffffffffff1603612f52576040517f08c379a0000000000000000000000000000000000000000000000000000000008152600401612f4990615045565b60405180910390fd5b612f5b81612bbc565b15612f9b576040517f08c379a0000000000000000000000000000000000000000000000000000000008152600401612f92906150b1565b60405180910390fd5b612fa9600083836001612bfd565b612fb281612bbc565b15612ff2576040517f08c379a0000000000000000000000000000000000000000000000000000000008152600401612fe9906150b1565b60405180910390fd5b6001600360008473ffffffffffffffffffffffffffffffffffffffff1673ffffffffffffffffffffffffffffffffffffffff16815260200190815260200160002060008282540192505081905550816002600083815260200190815260200160002060006101000a81548173ffffffffffffffffffffffffffffffffffffffff021916908373ffffffffffffffffffffffffffffffffffffffff160217905550808273ffffffffffffffffffffffffffffffffffffffff16600073ffffffffffffffffffffffffffffffffffffffff167fddf252ad1be2c89b69c2b068fc378daa952ba7f163c4a11628f55a4df523b3ef60405160405180910390a46130fc600083836001612c03565b5050565b6000808273ffffffffffffffffffffffffffffffffffffffff163b119050919050565b604051806101400160405280600081526020016060815260200160008152602001600081526020016000815260200160608152602001606081526020016060815260200160608152602001606081525090565b6040518060e0016040528060008152602001600073ffffffffffffffffffffffffffffffffffffffff168152602001600081526020016000815260200160008152602001600073ffffffffffffffffffffffffffffffffffffffff1681526020016000151581525090565b6000604051905090565b600080fd5b600080fd5b60007fffffffff0000000000000000000000000000000000000000000000000000000082169050919050565b61322a816131f5565b811461323557600080fd5b50565b60008135905061324781613221565b92915050565b600060208284031215613263576132626131eb565b5b600061327184828501613238565b91505092915050565b60008115159050919050565b61328f8161327a565b82525050565b60006020820190506132aa6000830184613286565b92915050565b6000819050919050565b6132c3816132b0565b81146132ce57600080fd5b50565b6000813590506132e0816132ba565b92915050565b6000806000606084860312156132ff576132fe6131eb565b5b600061330d868287016132d1565b935050602061331e868287016132d1565b925050604061332f868287016132d1565b9150509250925092565b600081519050919050565b600082825260208201905092915050565b60005b83811015613373578082015181840152602081019050613358565b60008484015250505050565b6000601f19601f8301169050919050565b600061339b82613339565b6133a58185613344565b93506133b5818560208601613355565b6133be8161337f565b840191505092915050565b600060208201905081810360008301526133e38184613390565b905092915050565b600060208284031215613401576134006131eb565b5b600061340f848285016132d1565b91505092915050565b600073ffffffffffffffffffffffffffffffffffffffff82169050919050565b600061344382613418565b9050919050565b61345381613438565b82525050565b600060208201905061346e600083018461344a565b92915050565b61347d81613438565b811461348857600080fd5b50565b60008135905061349a81613474565b92915050565b600080604083850312156134b7576134b66131eb565b5b60006134c58582860161348b565b92505060206134d6858286016132d1565b9150509250929050565b600080fd5b600080fd5b7f4e487b7100000000000000000000000000000000000000000000000000000000600052604160045260246000fd5b6135228261337f565b810181811067ffffffffffffffff82111715613541576135406134ea565b5b80604052505050565b60006135546131e1565b90506135608282613519565b919050565b600067ffffffffffffffff8211156135805761357f6134ea565b5b6135898261337f565b9050602081019050919050565b82818337600083830152505050565b60006135b86135b384613565565b61354a565b9050828152602081018484840111156135d4576135d36134e5565b5b6135df848285613596565b509392505050565b600082601f8301126135fc576135fb6134e0565b5b813561360c8482602086016135a5565b91505092915050565b6000806000806000806000806000806101408b8d031215613639576136386131eb565b5b60006136478d828e016132d1565b9a505060208b013567ffffffffffffffff811115613668576136676131f0565b5b6136748d828e016135e7565b99505060406136858d828e016132d1565b98505060606136968d828e016132d1565b97505060806136a78d828e016132d1565b96505060a08b013567ffffffffffffffff8111156136c8576136c76131f0565b5b6136d48d828e016135e7565b95505060c08b013567ffffffffffffffff8111156136f5576136f46131f0565b5b6137018d828e016135e7565b94505060e08b013567ffffffffffffffff811115613722576137216131f0565b5b61372e8d828e016135e7565b9350506101008b013567ffffffffffffffff8111156137505761374f6131f0565b5b61375c8d828e016135e7565b9250506101208b013567ffffffffffffffff81111561377e5761377d6131f0565b5b61378a8d828e016135e7565b9150509295989b9194979a5092959850565b6137a5816132b0565b82525050565b60006020820190506137c0600083018461379c565b92915050565b6000806000606084860312156137df576137de6131eb565b5b60006137ed8682870161348b565b93505060206137fe8682870161348b565b925050604061380f868287016132d1565b9150509250925092565b600080604083850312156138305761382f6131eb565b5b600061383e858286016132d1565b925050602061384f858286016132d1565b9150509250929050565b600081519050919050565b600082825260208201905092915050565b6000819050602082019050919050565b61388e816132b0565b82525050565b60006138a08383613885565b60208301905092915050565b6000602082019050919050565b60006138c482613859565b6138ce8185613864565b93506138d983613875565b8060005b8381101561390a5781516138f18882613894565b97506138fc836138ac565b9250506001810190506138dd565b5085935050505092915050565b6000602082019050818103600083015261393181846138b9565b905092915050565b6000819050919050565b600061395e61395961395484613418565b613939565b613418565b9050919050565b600061397082613943565b9050919050565b600061398282613965565b9050919050565b61399281613977565b82525050565b60006139a382613418565b9050919050565b6139b381613998565b82525050565b600060e0820190506139ce600083018a61379c565b6139db6020830189613989565b6139e8604083018861379c565b6139f5606083018761379c565b613a02608083018661379c565b613a0f60a08301856139aa565b613a1c60c0830184613286565b98975050505050505050565b6000613a3382613438565b9050919050565b613a4381613a28565b8114613a4e57600080fd5b50565b600081359050613a6081613a3a565b92915050565b613a6f8161327a565b8114613a7a57600080fd5b50565b600081359050613a8c81613a66565b92915050565b600080600080600080600060e0888a031215613ab157613ab06131eb565b5b6000613abf8a828b016132d1565b9750506020613ad08a828b01613a51565b9650506040613ae18a828b016132d1565b9550506060613af28a828b016132d1565b9450506080613b038a828b016132d1565b93505060a0613b148a828b0161348b565b92505060c0613b258a828b01613a7d565b91505092959891949750929550565b6000602082019050613b4960008301846139aa565b92915050565b600060208284031215613b6557613b646131eb565b5b6000613b738482850161348b565b91505092915050565b600082825260208201905092915050565b6000613b9882613339565b613ba28185613b7c565b9350613bb2818560208601613355565b613bbb8161337f565b840191505092915050565b600061014083016000830151613bdf6000860182613885565b5060208301518482036020860152613bf78282613b8d565b9150506040830151613c0c6040860182613885565b506060830151613c1f6060860182613885565b506080830151613c326080860182613885565b5060a083015184820360a0860152613c4a8282613b8d565b91505060c083015184820360c0860152613c648282613b8d565b91505060e083015184820360e0860152613c7e8282613b8d565b915050610100830151848203610100860152613c9a8282613b8d565b915050610120830151848203610120860152613cb68282613b8d565b9150508091505092915050565b60006020820190508181036000830152613cdd8184613bc6565b905092915050565b60008060408385031215613cfc57613cfb6131eb565b5b6000613d0a858286016132d1565b9250506020613d1b8582860161348b565b9150509250929050565b60008060408385031215613d3c57613d3b6131eb565b5b6000613d4a8582860161348b565b9250506020613d5b85828601613a7d565b9150509250929050565b600067ffffffffffffffff821115613d8057613d7f6134ea565b5b613d898261337f565b9050602081019050919050565b6000613da9613da484613d65565b61354a565b905082815260208101848484011115613dc557613dc46134e5565b5b613dd0848285613596565b509392505050565b600082601f830112613ded57613dec6134e0565b5b8135613dfd848260208601613d96565b91505092915050565b60008060008060808587031215613e2057613e1f6131eb565b5b6000613e2e8782880161348b565b9450506020613e3f8782880161348b565b9350506040613e50878288016132d1565b925050606085013567ffffffffffffffff811115613e7157613e706131f0565b5b613e7d87828801613dd8565b91505092959194509250565b600080fd5b613e9781613998565b8114613ea257600080fd5b50565b600081359050613eb481613e8e565b92915050565b600060e08284031215613ed057613ecf613e89565b5b613eda60e061354a565b90506000613eea848285016132d1565b6000830152506020613efe84828501613a51565b6020830152506040613f12848285016132d1565b6040830152506060613f26848285016132d1565b6060830152506080613f3a848285016132d1565b60808301525060a0613f4e84828501613ea5565b60a08301525060c0613f6284828501613a7d565b60c08301525092915050565b60008060006101208486031215613f8857613f876131eb565b5b6000613f96868287016132d1565b9350506020613fa7868287016132d1565b9250506040613fb886828701613eba565b9150509250925092565b600081519050919050565b600082825260208201905092915050565b6000819050602082019050919050565b613ff781613977565b82525050565b61400681613998565b82525050565b6140158161327a565b82525050565b60e0820160008201516140316000850182613885565b5060208201516140446020850182613fee565b5060408201516140576040850182613885565b50606082015161406a6060850182613885565b50608082015161407d6080850182613885565b5060a082015161409060a0850182613ffd565b5060c08201516140a360c085018261400c565b50505050565b60006140b5838361401b565b60e08301905092915050565b6000602082019050919050565b60006140d982613fc2565b6140e38185613fcd565b93506140ee83613fde565b8060005b8381101561411f57815161410688826140a9565b9750614111836140c1565b9250506001810190506140f2565b5085935050505092915050565b6000602082019050818103600083015261414681846140ce565b905092915050565b60008060408385031215614165576141646131eb565b5b60006141738582860161348b565b92505060206141848582860161348b565b9150509250929050565b7f4e487b7100000000000000000000000000000000000000000000000000000000600052601160045260246000fd5b60006141c8826132b0565b91506141d3836132b0565b92508282039050818111156141eb576141ea61418e565b5b92915050565b60006141fc826132b0565b91507fffffffffffffffffffffffffffffffffffffffffffffffffffffffffffffffff820361422e5761422d61418e565b5b600182019050919050565b7f4e487b7100000000000000000000000000000000000000000000000000000000600052602260045260246000fd5b6000600282049050600182168061428057607f821691505b60208210810361429357614292614239565b5b50919050565b7f4552433732313a20617070726f76616c20746f2063757272656e74206f776e6560008201527f7200000000000000000000000000000000000000000000000000000000000000602082015250565b60006142f5602183613344565b915061430082614299565b604082019050919050565b60006020820190508181036000830152614324816142e8565b9050919050565b7f4552433732313a20617070726f76652063616c6c6572206973206e6f7420746f60008201527f6b656e206f776e6572206f7220617070726f76656420666f7220616c6c000000602082015250565b6000614387603d83613344565b91506143928261432b565b604082019050919050565b600060208201905081810360008301526143b68161437a565b9050919050565b60008190508160005260206000209050919050565b60006020601f8301049050919050565b600082821b905092915050565b60006008830261441f7fffffffffffffffffffffffffffffffffffffffffffffffffffffffffffffffff826143e2565b61442986836143e2565b95508019841693508086168417925050509392505050565b600061445c614457614452846132b0565b613939565b6132b0565b9050919050565b6000819050919050565b61447683614441565b61448a61448282614463565b8484546143ef565b825550505050565b600090565b61449f614492565b6144aa81848461446d565b505050565b5b818110156144ce576144c3600082614497565b6001810190506144b0565b5050565b601f821115614513576144e4816143bd565b6144ed846143d2565b810160208510156144fc578190505b614510614508856143d2565b8301826144af565b50505b505050565b600082821c905092915050565b600061453660001984600802614518565b1980831691505092915050565b600061454f8383614525565b9150826002028217905092915050565b61456882613339565b67ffffffffffffffff811115614581576145806134ea565b5b61458b8254614268565b6145968282856144d2565b600060209050601f8311600181146145c957600084156145b7578287015190505b6145c18582614543565b865550614629565b601f1984166145d7866143bd565b60005b828110156145ff578489015182556001820191506020850194506020810190506145da565b8683101561461c5784890151614618601f891682614525565b8355505b6001600288020188555050505b505050505050565b7f4552433732313a2063616c6c6572206973206e6f7420746f6b656e206f776e6560008201527f72206f7220617070726f76656400000000000000000000000000000000000000602082015250565b600061468d602d83613344565b915061469882614631565b604082019050919050565b600060208201905081810360008301526146bc81614680565b9050919050565b600081905092915050565b50565b60006146de6000836146c3565b91506146e9826146ce565b600082019050919050565b60006146ff826146d1565b9150819050919050565b7f5072696365206d7573742062652067726561746572207468616e207a65726f00600082015250565b600061473f601f83613344565b915061474a82614709565b602082019050919050565b6000602082019050818103600083015261476e81614732565b9050919050565b600060608201905061478a600083018661379c565b614797602083018561379c565b6147a4604083018461379c565b949350505050565b7f4552433732313a20696e76616c696420746f6b656e2049440000000000000000600082015250565b60006147e2601883613344565b91506147ed826147ac565b602082019050919050565b60006020820190508181036000830152614811816147d5565b9050919050565b7f4552433732313a2061646472657373207a65726f206973206e6f74206120766160008201527f6c6964206f776e65720000000000000000000000000000000000000000000000602082015250565b6000614874602983613344565b915061487f82614818565b604082019050919050565b600060208201905081810360008301526148a381614867565b9050919050565b7f5469636b657420646f65736e2774206578697374000000000000000000000000600082015250565b60006148e0601483613344565b91506148eb826148aa565b602082019050919050565b6000602082019050818103600083015261490f816148d3565b9050919050565b7f6e6f7420656e6f75676820657468657220746f20636f766572207469636b657460008201527f20707269636520616e64206d61726b6574206665650000000000000000000000602082015250565b6000614972603583613344565b915061497d82614916565b604082019050919050565b600060208201905081810360008301526149a181614965565b9050919050565b7f7469636b657420616c726561647920736f6c6400000000000000000000000000600082015250565b60006149de601383613344565b91506149e9826149a8565b602082019050919050565b60006020820190508181036000830152614a0d816149d1565b9050919050565b6000606082019050614a29600083018661344a565b614a36602083018561344a565b614a43604083018461379c565b949350505050565b600081905092915050565b6000614a6182613339565b614a6b8185614a4b565b9350614a7b818560208601613355565b80840191505092915050565b6000614a938285614a56565b9150614a9f8284614a56565b91508190509392505050565b6000614ab6826132b0565b9150614ac1836132b0565b9250828201905080821115614ad957614ad861418e565b5b92915050565b6000614aea826132b0565b9150614af5836132b0565b9250828202614b03816132b0565b91508282048414831517614b1a57614b1961418e565b5b5092915050565b7f4e487b7100000000000000000000000000000000000000000000000000000000600052601260045260246000fd5b6000614b5b826132b0565b9150614b66836132b0565b925082614b7657614b75614b21565b5b828204905092915050565b7f596f7520646f206e6f74206f776e2074686973207469636b6574000000000000600082015250565b6000614bb7601a83613344565b9150614bc282614b81565b602082019050919050565b60006020820190508181036000830152614be681614baa565b9050919050565b7f5469636b65742068617320616c7265616479206265656e20736f6c6400000000600082015250565b6000614c23601c83613344565b9150614c2e82614bed565b602082019050919050565b60006020820190508181036000830152614c5281614c16565b9050919050565b7f496e76616c6964206f63636173696f6e49640000000000000000000000000000600082015250565b6000614c8f601283613344565b9150614c9a82614c59565b602082019050919050565b60006020820190508181036000830152614cbe81614c82565b9050919050565b7f4e487b7100000000000000000000000000000000000000000000000000000000600052603260045260246000fd5b7f4552433732313a207472616e736665722066726f6d20696e636f72726563742060008201527f6f776e6572000000000000000000000000000000000000000000000000000000602082015250565b6000614d50602583613344565b9150614d5b82614cf4565b604082019050919050565b60006020820190508181036000830152614d7f81614d43565b9050919050565b7f4552433732313a207472616e7366657220746f20746865207a65726f2061646460008201527f7265737300000000000000000000000000000000000000000000000000000000602082015250565b6000614de2602483613344565b9150614ded82614d86565b604082019050919050565b60006020820190508181036000830152614e1181614dd5565b9050919050565b7f4552433732313a20617070726f766520746f2063616c6c657200000000000000600082015250565b6000614e4e601983613344565b9150614e5982614e18565b602082019050919050565b60006020820190508181036000830152614e7d81614e41565b9050919050565b7f4552433732313a207472616e7366657220746f206e6f6e20455243373231526560008201527f63656976657220696d706c656d656e7465720000000000000000000000000000602082015250565b6000614ee0603283613344565b9150614eeb82614e84565b604082019050919050565b60006020820190508181036000830152614f0f81614ed3565b9050919050565b600081519050919050565b600082825260208201905092915050565b6000614f3d82614f16565b614f478185614f21565b9350614f57818560208601613355565b614f608161337f565b840191505092915050565b6000608082019050614f80600083018761344a565b614f8d602083018661344a565b614f9a604083018561379c565b8181036060830152614fac8184614f32565b905095945050505050565b600081519050614fc681613221565b92915050565b600060208284031215614fe257614fe16131eb565b5b6000614ff084828501614fb7565b91505092915050565b7f4552433732313a206d696e7420746f20746865207a65726f2061646472657373600082015250565b600061502f602083613344565b915061503a82614ff9565b602082019050919050565b6000602082019050818103600083015261505e81615022565b9050919050565b7f4552433732313a20746f6b656e20616c7265616479206d696e74656400000000600082015250565b600061509b601c83613344565b91506150a682615065565b602082019050919050565b600060208201905081810360008301526150ca8161508e565b905091905056fea26469706673582212208f46c12e43dc0a9d34557c92cdf6200f60b57d7bcb6b973f25d96f2c902a7aec64736f6c63430008110033",
  "linkReferences": {},
  "deployedLinkReferences": {}
}