{
  "_format": "hh-sol-artifact-1",
  "contractName": "Artick",
  "sourceName": "contracts/Artick.sol",
  "abi": [
    {
      "inputs": [
        {
          "internalType": "uint256",
          "name": "_feePercent",
          "type": "uint256"
        }
      ],
      "stateMutability": "nonpayable",
      "type": "constructor"
    },
    {
      "anonymous": false,
      "inputs": [
        {
          "indexed": true,
          "internalType": "address",
          "name": "owner",
          "type": "address"
        },
        {
          "indexed": true,
          "internalType": "address",
          "name": "approved",
          "type": "address"
        },
        {
          "indexed": true,
          "internalType": "uint256",
          "name": "tokenId",
          "type": "uint256"
        }
      ],
      "name": "Approval",
      "type": "event"
    },
    {
      "anonymous": false,
      "inputs": [
        {
          "indexed": true,
          "internalType": "address",
          "name": "owner",
          "type": "address"
        },
        {
          "indexed": true,
          "internalType": "address",
          "name": "operator",
          "type": "address"
        },
        {
          "indexed": false,
          "internalType": "bool",
          "name": "approved",
          "type": "bool"
        }
      ],
      "name": "ApprovalForAll",
      "type": "event"
    },
    {
      "anonymous": false,
      "inputs": [
        {
          "indexed": false,
          "internalType": "uint256",
          "name": "TicketId",
          "type": "uint256"
        },
        {
          "indexed": true,
          "internalType": "address",
          "name": "nft",
          "type": "address"
        },
        {
          "indexed": false,
          "internalType": "uint256",
          "name": "tokenId",
          "type": "uint256"
        },
        {
          "indexed": false,
          "internalType": "uint256",
          "name": "price",
          "type": "uint256"
        },
        {
          "indexed": true,
          "internalType": "address",
          "name": "seller",
          "type": "address"
        },
        {
          "indexed": true,
          "internalType": "address",
          "name": "buyer",
          "type": "address"
        }
      ],
      "name": "Bought",
      "type": "event"
    },
    {
      "anonymous": false,
      "inputs": [
        {
          "indexed": false,
          "internalType": "uint256",
          "name": "TicketId",
          "type": "uint256"
        },
        {
          "indexed": true,
          "internalType": "address",
          "name": "nft",
          "type": "address"
        },
        {
          "indexed": false,
          "internalType": "uint256",
          "name": "tokenId",
          "type": "uint256"
        },
        {
          "indexed": false,
          "internalType": "uint256",
          "name": "price",
          "type": "uint256"
        },
        {
          "indexed": true,
          "internalType": "address",
          "name": "seller",
          "type": "address"
        }
      ],
      "name": "OfferedTicket",
      "type": "event"
    },
    {
      "anonymous": false,
      "inputs": [
        {
          "indexed": true,
          "internalType": "address",
          "name": "from",
          "type": "address"
        },
        {
          "indexed": true,
          "internalType": "address",
          "name": "to",
          "type": "address"
        },
        {
          "indexed": true,
          "internalType": "uint256",
          "name": "tokenId",
          "type": "uint256"
        }
      ],
      "name": "Transfer",
      "type": "event"
    },
    {
      "inputs": [
        {
          "internalType": "uint256",
          "name": "",
          "type": "uint256"
        },
        {
          "internalType": "uint256",
          "name": "",
          "type": "uint256"
        }
      ],
      "name": "TicketTaken",
      "outputs": [
        {
          "internalType": "address",
          "name": "",
          "type": "address"
        }
      ],
      "stateMutability": "view",
      "type": "function"
    },
    {
      "inputs": [
        {
          "internalType": "address",
          "name": "to",
          "type": "address"
        },
        {
          "internalType": "uint256",
          "name": "tokenId",
          "type": "uint256"
        }
      ],
      "name": "approve",
      "outputs": [],
      "stateMutability": "nonpayable",
      "type": "function"
    },
    {
      "inputs": [
        {
          "internalType": "address",
          "name": "owner",
          "type": "address"
        }
      ],
      "name": "balanceOf",
      "outputs": [
        {
          "internalType": "uint256",
          "name": "",
          "type": "uint256"
        }
      ],
      "stateMutability": "view",
      "type": "function"
    },
    {
      "inputs": [],
      "name": "feeAccount",
      "outputs": [
        {
          "internalType": "address payable",
          "name": "",
          "type": "address"
        }
      ],
      "stateMutability": "view",
      "type": "function"
    },
    {
      "inputs": [],
      "name": "feePercent",
      "outputs": [
        {
          "internalType": "uint256",
          "name": "",
          "type": "uint256"
        }
      ],
      "stateMutability": "view",
      "type": "function"
    },
    {
      "inputs": [
        {
          "internalType": "uint256",
          "name": "tokenId",
          "type": "uint256"
        }
      ],
      "name": "getApproved",
      "outputs": [
        {
          "internalType": "address",
          "name": "",
          "type": "address"
        }
      ],
      "stateMutability": "view",
      "type": "function"
    },
    {
      "inputs": [
        {
          "internalType": "uint256",
          "name": "_id",
          "type": "uint256"
        }
      ],
      "name": "getOccasion",
      "outputs": [
        {
          "components": [
            {
              "internalType": "uint256",
              "name": "id",
              "type": "uint256"
            },
            {
              "internalType": "string",
              "name": "name",
              "type": "string"
            },
            {
              "internalType": "uint256",
              "name": "cost",
              "type": "uint256"
            },
            {
              "internalType": "uint256",
              "name": "tickets",
              "type": "uint256"
            },
            {
              "internalType": "uint256",
              "name": "maxTickets",
              "type": "uint256"
            },
            {
              "internalType": "string",
              "name": "date",
              "type": "string"
            },
            {
              "internalType": "string",
              "name": "time",
              "type": "string"
            },
            {
              "internalType": "string",
              "name": "location",
              "type": "string"
            },
            {
              "internalType": "string",
              "name": "description",
              "type": "string"
            },
            {
              "internalType": "string",
              "name": "image",
              "type": "string"
            }
          ],
          "internalType": "struct Artick.Occasion",
          "name": "",
          "type": "tuple"
        }
      ],
      "stateMutability": "view",
      "type": "function"
    },
    {
      "inputs": [
        {
          "internalType": "uint256",
          "name": "_occasionId",
          "type": "uint256"
        }
      ],
      "name": "getTicketsForOccasion",
      "outputs": [
        {
          "components": [
            {
              "internalType": "uint256",
              "name": "TicketId",
              "type": "uint256"
            },
            {
              "internalType": "contract IERC721",
              "name": "nft",
              "type": "address"
            },
            {
              "internalType": "uint256",
              "name": "tokenId",
              "type": "uint256"
            },
            {
              "internalType": "uint256",
              "name": "price",
              "type": "uint256"
            },
            {
              "internalType": "uint256",
              "name": "occasionId",
              "type": "uint256"
            },
            {
              "internalType": "address payable",
              "name": "seller",
              "type": "address"
            },
            {
              "internalType": "bool",
              "name": "sold",
              "type": "bool"
            }
          ],
          "internalType": "struct Artick.Ticket[]",
          "name": "",
          "type": "tuple[]"
        }
      ],
      "stateMutability": "view",
      "type": "function"
    },
    {
      "inputs": [
        {
          "internalType": "uint256",
          "name": "_id",
          "type": "uint256"
        }
      ],
      "name": "getTicketsTaken",
      "outputs": [
        {
          "internalType": "uint256[]",
          "name": "",
          "type": "uint256[]"
        }
      ],
      "stateMutability": "view",
      "type": "function"
    },
    {
      "inputs": [
        {
          "internalType": "uint256",
          "name": "_TicketId",
          "type": "uint256"
        }
      ],
      "name": "getTotalPrice",
      "outputs": [
        {
          "internalType": "uint256",
          "name": "",
          "type": "uint256"
        }
      ],
      "stateMutability": "view",
      "type": "function"
    },
    {
      "inputs": [
        {
          "internalType": "uint256",
          "name": "",
          "type": "uint256"
        },
        {
          "internalType": "address",
          "name": "",
          "type": "address"
        }
      ],
      "name": "hasBought",
      "outputs": [
        {
          "internalType": "bool",
          "name": "",
          "type": "bool"
        }
      ],
      "stateMutability": "view",
      "type": "function"
    },
    {
      "inputs": [
        {
          "internalType": "address",
          "name": "owner",
          "type": "address"
        },
        {
          "internalType": "address",
          "name": "operator",
          "type": "address"
        }
      ],
      "name": "isApprovedForAll",
      "outputs": [
        {
          "internalType": "bool",
          "name": "",
          "type": "bool"
        }
      ],
      "stateMutability": "view",
      "type": "function"
    },
    {
      "inputs": [
        {
          "internalType": "uint256",
          "name": "_id",
          "type": "uint256"
        },
        {
          "internalType": "string",
          "name": "_name",
          "type": "string"
        },
        {
          "internalType": "uint256",
          "name": "_cost",
          "type": "uint256"
        },
        {
          "internalType": "uint256",
          "name": "_tickets",
          "type": "uint256"
        },
        {
          "internalType": "uint256",
          "name": "_maxTickets",
          "type": "uint256"
        },
        {
          "internalType": "string",
          "name": "_date",
          "type": "string"
        },
        {
          "internalType": "string",
          "name": "_time",
          "type": "string"
        },
        {
          "internalType": "string",
          "name": "_location",
          "type": "string"
        },
        {
          "internalType": "string",
          "name": "_description",
          "type": "string"
        },
        {
          "internalType": "string",
          "name": "_image",
          "type": "string"
        }
      ],
      "name": "listOccasion",
      "outputs": [],
      "stateMutability": "nonpayable",
      "type": "function"
    },
    {
      "inputs": [
        {
          "internalType": "contract IERC721",
          "name": "_artick",
          "type": "address"
        },
        {
          "internalType": "uint256",
          "name": "_TicketId",
          "type": "uint256"
        },
        {
          "internalType": "uint256",
          "name": "_price",
          "type": "uint256"
        },
        {
          "internalType": "uint256",
          "name": "_tokenId",
          "type": "uint256"
        },
        {
          "internalType": "uint256",
          "name": "_occasionId",
          "type": "uint256"
        },
        {
          "internalType": "address",
          "name": "_seller",
          "type": "address"
        },
        {
          "internalType": "bool",
          "name": "_sold",
          "type": "bool"
        }
      ],
      "name": "makeTicket",
      "outputs": [],
      "stateMutability": "nonpayable",
      "type": "function"
    },
    {
      "inputs": [
        {
          "internalType": "uint256",
          "name": "_id",
          "type": "uint256"
        },
        {
          "internalType": "uint256",
          "name": "_ticket",
          "type": "uint256"
        },
        {
          "internalType": "uint256",
          "name": "_tokenId",
          "type": "uint256"
        }
      ],
      "name": "mint",
      "outputs": [],
      "stateMutability": "payable",
      "type": "function"
    },
    {
      "inputs": [],
      "name": "name",
      "outputs": [
        {
          "internalType": "string",
          "name": "",
          "type": "string"
        }
      ],
      "stateMutability": "view",
      "type": "function"
    },
    {
      "inputs": [],
      "name": "owner",
      "outputs": [
        {
          "internalType": "address",
          "name": "",
          "type": "address"
        }
      ],
      "stateMutability": "view",
      "type": "function"
    },
    {
      "inputs": [
        {
          "internalType": "uint256",
          "name": "tokenId",
          "type": "uint256"
        }
      ],
      "name": "ownerOf",
      "outputs": [
        {
          "internalType": "address",
          "name": "",
          "type": "address"
        }
      ],
      "stateMutability": "view",
      "type": "function"
    },
    {
      "inputs": [
        {
          "internalType": "uint256",
          "name": "_TicketId",
          "type": "uint256"
        }
      ],
      "name": "purchaseTicket",
      "outputs": [],
      "stateMutability": "payable",
      "type": "function"
    },
    {
      "inputs": [
        {
          "internalType": "address",
          "name": "from",
          "type": "address"
        },
        {
          "internalType": "address",
          "name": "to",
          "type": "address"
        },
        {
          "internalType": "uint256",
          "name": "tokenId",
          "type": "uint256"
        }
      ],
      "name": "safeTransferFrom",
      "outputs": [],
      "stateMutability": "nonpayable",
      "type": "function"
    },
    {
      "inputs": [
        {
          "internalType": "address",
          "name": "from",
          "type": "address"
        },
        {
          "internalType": "address",
          "name": "to",
          "type": "address"
        },
        {
          "internalType": "uint256",
          "name": "tokenId",
          "type": "uint256"
        },
        {
          "internalType": "bytes",
          "name": "data",
          "type": "bytes"
        }
      ],
      "name": "safeTransferFrom",
      "outputs": [],
      "stateMutability": "nonpayable",
      "type": "function"
    },
    {
      "inputs": [
        {
          "internalType": "uint256",
          "name": "_tokenId",
          "type": "uint256"
        },
        {
          "internalType": "uint256",
          "name": "_newPrice",
          "type": "uint256"
        },
        {
          "components": [
            {
              "internalType": "uint256",
              "name": "TicketId",
              "type": "uint256"
            },
            {
              "internalType": "contract IERC721",
              "name": "nft",
              "type": "address"
            },
            {
              "internalType": "uint256",
              "name": "tokenId",
              "type": "uint256"
            },
            {
              "internalType": "uint256",
              "name": "price",
              "type": "uint256"
            },
            {
              "internalType": "uint256",
              "name": "occasionId",
              "type": "uint256"
            },
            {
              "internalType": "address payable",
              "name": "seller",
              "type": "address"
            },
            {
              "internalType": "bool",
              "name": "sold",
              "type": "bool"
            }
          ],
          "internalType": "struct Artick.Ticket",
          "name": "ticket",
          "type": "tuple"
        }
      ],
      "name": "sellTicket",
      "outputs": [],
      "stateMutability": "nonpayable",
      "type": "function"
    },
    {
      "inputs": [
        {
          "internalType": "address",
          "name": "operator",
          "type": "address"
        },
        {
          "internalType": "bool",
          "name": "approved",
          "type": "bool"
        }
      ],
      "name": "setApprovalForAll",
      "outputs": [],
      "stateMutability": "nonpayable",
      "type": "function"
    },
    {
      "inputs": [
        {
          "internalType": "bytes4",
          "name": "interfaceId",
          "type": "bytes4"
        }
      ],
      "name": "supportsInterface",
      "outputs": [
        {
          "internalType": "bool",
          "name": "",
          "type": "bool"
        }
      ],
      "stateMutability": "view",
      "type": "function"
    },
    {
      "inputs": [],
      "name": "symbol",
      "outputs": [
        {
          "internalType": "string",
          "name": "",
          "type": "string"
        }
      ],
      "stateMutability": "view",
      "type": "function"
    },
    {
      "inputs": [
        {
          "internalType": "uint256",
          "name": "",
          "type": "uint256"
        }
      ],
      "name": "tickets",
      "outputs": [
        {
          "internalType": "uint256",
          "name": "TicketId",
          "type": "uint256"
        },
        {
          "internalType": "contract IERC721",
          "name": "nft",
          "type": "address"
        },
        {
          "internalType": "uint256",
          "name": "tokenId",
          "type": "uint256"
        },
        {
          "internalType": "uint256",
          "name": "price",
          "type": "uint256"
        },
        {
          "internalType": "uint256",
          "name": "occasionId",
          "type": "uint256"
        },
        {
          "internalType": "address payable",
          "name": "seller",
          "type": "address"
        },
        {
          "internalType": "bool",
          "name": "sold",
          "type": "bool"
        }
      ],
      "stateMutability": "view",
      "type": "function"
    },
    {
      "inputs": [
        {
          "internalType": "uint256",
          "name": "tokenId",
          "type": "uint256"
        }
      ],
      "name": "tokenURI",
      "outputs": [
        {
          "internalType": "string",
          "name": "",
          "type": "string"
        }
      ],
      "stateMutability": "view",
      "type": "function"
    },
    {
      "inputs": [],
      "name": "totalOccasions",
      "outputs": [
        {
          "internalType": "uint256",
          "name": "",
          "type": "uint256"
        }
      ],
      "stateMutability": "view",
      "type": "function"
    },
    {
      "inputs": [],
      "name": "totalSupply",
      "outputs": [
        {
          "internalType": "uint256",
          "name": "",
          "type": "uint256"
        }
      ],
      "stateMutability": "view",
      "type": "function"
    },
    {
      "inputs": [
        {
          "internalType": "address",
          "name": "from",
          "type": "address"
        },
        {
          "internalType": "address",
          "name": "to",
          "type": "address"
        },
        {
          "internalType": "uint256",
          "name": "tokenId",
          "type": "uint256"
        }
      ],
      "name": "transferFrom",
      "outputs": [],
      "stateMutability": "nonpayable",
      "type": "function"
    },
    {
      "inputs": [],
      "name": "withdraw",
      "outputs": [],
      "stateMutability": "nonpayable",
      "type": "function"
    }
  ],
  "bytecode": "0x60c06040523480156200001157600080fd5b50604051620056c8380380620056c883398181016040528101906200003791906200018d565b6040518060400160405280600681526020017f41727469636b00000000000000000000000000000000000000000000000000008152506040518060400160405280600381526020017f41544b00000000000000000000000000000000000000000000000000000000008152508160009081620000b491906200042f565b508060019081620000c691906200042f565b50505033600660006101000a81548173ffffffffffffffffffffffffffffffffffffffff021916908373ffffffffffffffffffffffffffffffffffffffff1602179055503373ffffffffffffffffffffffffffffffffffffffff1660808173ffffffffffffffffffffffffffffffffffffffff16815250508060a081815250505062000516565b600080fd5b6000819050919050565b620001678162000152565b81146200017357600080fd5b50565b60008151905062000187816200015c565b92915050565b600060208284031215620001a657620001a56200014d565b5b6000620001b68482850162000176565b91505092915050565b600081519050919050565b7f4e487b7100000000000000000000000000000000000000000000000000000000600052604160045260246000fd5b7f4e487b7100000000000000000000000000000000000000000000000000000000600052602260045260246000fd5b600060028204905060018216806200024157607f821691505b602082108103620002575762000256620001f9565b5b50919050565b60008190508160005260206000209050919050565b60006020601f8301049050919050565b600082821b905092915050565b600060088302620002c17fffffffffffffffffffffffffffffffffffffffffffffffffffffffffffffffff8262000282565b620002cd868362000282565b95508019841693508086168417925050509392505050565b6000819050919050565b6000620003106200030a620003048462000152565b620002e5565b62000152565b9050919050565b6000819050919050565b6200032c83620002ef565b620003446200033b8262000317565b8484546200028f565b825550505050565b600090565b6200035b6200034c565b6200036881848462000321565b505050565b5b8181101562000390576200038460008262000351565b6001810190506200036e565b5050565b601f821115620003df57620003a9816200025d565b620003b48462000272565b81016020851015620003c4578190505b620003dc620003d38562000272565b8301826200036d565b50505b505050565b600082821c905092915050565b60006200040460001984600802620003e4565b1980831691505092915050565b60006200041f8383620003f1565b9150826002028217905092915050565b6200043a82620001bf565b67ffffffffffffffff811115620004565762000455620001ca565b5b62000462825462000228565b6200046f82828562000394565b600060209050601f831160018114620004a7576000841562000492578287015190505b6200049e858262000411565b8655506200050e565b601f198416620004b7866200025d565b60005b82811015620004e157848901518255600182019150602085019450602081019050620004ba565b86831015620005015784890151620004fd601f891682620003f1565b8355505b6001600288020188555050505b505050505050565b60805160a05161517e6200054a600039600081816116a20152611ee40152600081816112050152611c77015261517e6000f3fe6080604052600436106101d85760003560e01c806370a0823111610102578063a22cb46511610095578063ca7dd37511610064578063ca7dd375146106e0578063d2367aae1461071d578063e4f84f4514610746578063e985e9c514610783576101d8565b8063a22cb46514610635578063b88d4fde1461065e578063b948348c14610687578063c87b56dd146106a3576101d8565b80638da5cb5b116100d15780638da5cb5b14610577578063953865c1146105a257806395d89b41146105cd5780639cb04aef146105f8576101d8565b806370a08231146104a957806374bc8656146104e65780637fd6f15c146105235780638022f5d11461054e576101d8565b806323b872dd1161017a57806342842e0e1161014957806342842e0e146103d557806350b44712146103fe5780636352211e1461044157806365e17c9d1461047e576101d8565b806323b872dd1461031b578063350e957f146103445780633ccfd60b146103815780633e84a97a14610398576101d8565b8063081812fc116101b6578063081812fc14610261578063095ea7b31461029e57806314200949146102c757806318160ddd146102f0576101d8565b806301ffc9a7146101dd57806302acc94b1461021a57806306fdde0314610236575b600080fd5b3480156101e957600080fd5b5061020460048036038101906101ff91906132c4565b6107c0565b604051610211919061330c565b60405180910390f35b610234600480360381019061022f919061335d565b6108a2565b005b34801561024257600080fd5b5061024b610b4b565b6040516102589190613440565b60405180910390f35b34801561026d57600080fd5b5061028860048036038101906102839190613462565b610bdd565b60405161029591906134d0565b60405180910390f35b3480156102aa57600080fd5b506102c560048036038101906102c09190613517565b610c23565b005b3480156102d357600080fd5b506102ee60048036038101906102e9919061368c565b610d3a565b005b3480156102fc57600080fd5b50610305610ec6565b6040516103129190613822565b60405180910390f35b34801561032757600080fd5b50610342600480360381019061033d919061383d565b610ecc565b005b34801561035057600080fd5b5061036b60048036038101906103669190613890565b610f2c565b60405161037891906134d0565b60405180910390f35b34801561038d57600080fd5b50610396610f6e565b005b3480156103a457600080fd5b506103bf60048036038101906103ba9190613462565b611063565b6040516103cc919061398e565b60405180910390f35b3480156103e157600080fd5b506103fc60048036038101906103f7919061383d565b6110ce565b005b34801561040a57600080fd5b5061042560048036038101906104209190613462565b6110ee565b6040516104389796959493929190613a30565b60405180910390f35b34801561044d57600080fd5b5061046860048036038101906104639190613462565b61117d565b60405161047591906134d0565b60405180910390f35b34801561048a57600080fd5b50610493611203565b6040516104a09190613a9f565b60405180910390f35b3480156104b557600080fd5b506104d060048036038101906104cb9190613aba565b611227565b6040516104dd9190613822565b60405180910390f35b3480156104f257600080fd5b5061050d60048036038101906105089190613462565b6112de565b60405161051a9190613c2e565b60405180910390f35b34801561052f57600080fd5b506105386116a0565b6040516105459190613822565b60405180910390f35b34801561055a57600080fd5b5061057560048036038101906105709190613cba565b6116c4565b005b34801561058357600080fd5b5061058c611997565b60405161059991906134d0565b60405180910390f35b3480156105ae57600080fd5b506105b76119bd565b6040516105c49190613822565b60405180910390f35b3480156105d957600080fd5b506105e26119c3565b6040516105ef9190613440565b60405180910390f35b34801561060457600080fd5b5061061f600480360381019061061a9190613d5c565b611a55565b60405161062c919061330c565b60405180910390f35b34801561064157600080fd5b5061065c60048036038101906106579190613d9c565b611a84565b005b34801561066a57600080fd5b5061068560048036038101906106809190613e7d565b611a9a565b005b6106a1600480360381019061069c9190613462565b611afc565b005b3480156106af57600080fd5b506106ca60048036038101906106c59190613462565b611e76565b6040516106d79190613440565b60405180910390f35b3480156106ec57600080fd5b5061070760048036038101906107029190613462565b611ede565b6040516107149190613822565b60405180910390f35b34801561072957600080fd5b50610744600480360381019061073f9190613fe5565b611f41565b005b34801561075257600080fd5b5061076d60048036038101906107689190613462565b6120b5565b60405161077a91906141a3565b60405180910390f35b34801561078f57600080fd5b506107aa60048036038101906107a591906141c5565b612338565b6040516107b7919061330c565b60405180910390f35b60007f80ac58cd000000000000000000000000000000000000000000000000000000007bffffffffffffffffffffffffffffffffffffffffffffffffffffffff1916827bffffffffffffffffffffffffffffffffffffffffffffffffffffffff1916148061088b57507f5b5e139f000000000000000000000000000000000000000000000000000000007bffffffffffffffffffffffffffffffffffffffffffffffffffffffff1916827bffffffffffffffffffffffffffffffffffffffffffffffffffffffff1916145b8061089b575061089a826123cc565b5b9050919050565b600083036108af57600080fd5b6008548311156108be57600080fd5b600083141580156108d157506008548311155b610910576040517f08c379a000000000000000000000000000000000000000000000000000000000815260040161090790614251565b60405180910390fd5b600b60008481526020019081526020016000206002015434101561093357600080fd5b600073ffffffffffffffffffffffffffffffffffffffff16600c6000858152602001908152602001600020600084815260200190815260200160002060009054906101000a900473ffffffffffffffffffffffffffffffffffffffff1673ffffffffffffffffffffffffffffffffffffffff16146109b057600080fd5b600b6000848152602001908152602001600020600401548211156109d357600080fd5b6001600b600085815260200190815260200160002060030160008282546109fa91906142a0565b925050819055506001600e600085815260200190815260200160002060003373ffffffffffffffffffffffffffffffffffffffff1673ffffffffffffffffffffffffffffffffffffffff16815260200190815260200160002060006101000a81548160ff02191690831515021790555033600c6000858152602001908152602001600020600084815260200190815260200160002060006101000a81548173ffffffffffffffffffffffffffffffffffffffff021916908373ffffffffffffffffffffffffffffffffffffffff160217905550600d600084815260200190815260200160002082908060018154018082558091505060019003906000526020600020016000909190919091505582600a600060095481526020019081526020016000206000018190555060096000815480929190610b37906142d4565b9190505550610b463382612436565b505050565b606060008054610b5a9061434b565b80601f0160208091040260200160405190810160405280929190818152602001828054610b869061434b565b8015610bd35780601f10610ba857610100808354040283529160200191610bd3565b820191906000526020600020905b815481529060010190602001808311610bb657829003601f168201915b5050505050905090565b6000610be882612454565b6004600083815260200190815260200160002060009054906101000a900473ffffffffffffffffffffffffffffffffffffffff169050919050565b6000610c2e8261117d565b90508073ffffffffffffffffffffffffffffffffffffffff168373ffffffffffffffffffffffffffffffffffffffff1603610c9e576040517f08c379a0000000000000000000000000000000000000000000000000000000008152600401610c95906143ee565b60405180910390fd5b8073ffffffffffffffffffffffffffffffffffffffff16610cbd61249f565b73ffffffffffffffffffffffffffffffffffffffff161480610cec5750610ceb81610ce661249f565b612338565b5b610d2b576040517f08c379a0000000000000000000000000000000000000000000000000000000008152600401610d2290614480565b60405180910390fd5b610d3583836124a7565b505050565b600660009054906101000a900473ffffffffffffffffffffffffffffffffffffffff1673ffffffffffffffffffffffffffffffffffffffff163373ffffffffffffffffffffffffffffffffffffffff1614610d9457600080fd5b60086000815480929190610da7906142d4565b919050555060405180610140016040528060085481526020018a815260200189815260200188815260200187815260200186815260200185815260200184815260200183815260200182815250600b60006008548152602001908152602001600020600082015181600001556020820151816001019081610e289190614642565b5060408201518160020155606082015181600301556080820151816004015560a0820151816005019081610e5c9190614642565b5060c0820151816006019081610e729190614642565b5060e0820151816007019081610e889190614642565b50610100820151816008019081610e9f9190614642565b50610120820151816009019081610eb69190614642565b5090505050505050505050505050565b60095481565b610edd610ed761249f565b82612560565b610f1c576040517f08c379a0000000000000000000000000000000000000000000000000000000008152600401610f1390614786565b60405180910390fd5b610f278383836125f5565b505050565b600c6020528160005260406000206020528060005260406000206000915091509054906101000a900473ffffffffffffffffffffffffffffffffffffffff1681565b600660009054906101000a900473ffffffffffffffffffffffffffffffffffffffff1673ffffffffffffffffffffffffffffffffffffffff163373ffffffffffffffffffffffffffffffffffffffff1614610fc857600080fd5b6000600660009054906101000a900473ffffffffffffffffffffffffffffffffffffffff1673ffffffffffffffffffffffffffffffffffffffff1647604051611010906147d7565b60006040518083038185875af1925050503d806000811461104d576040519150601f19603f3d011682016040523d82523d6000602084013e611052565b606091505b505090508061106057600080fd5b50565b6060600d60008381526020019081526020016000208054806020026020016040519081016040528092919081815260200182805480156110c257602002820191906000526020600020905b8154815260200190600101908083116110ae575b50505050509050919050565b6110e983838360405180602001604052806000815250611a9a565b505050565b600a6020528060005260406000206000915090508060000154908060010160009054906101000a900473ffffffffffffffffffffffffffffffffffffffff16908060020154908060030154908060040154908060050160009054906101000a900473ffffffffffffffffffffffffffffffffffffffff16908060050160149054906101000a900460ff16905087565b600080611189836128ee565b9050600073ffffffffffffffffffffffffffffffffffffffff168173ffffffffffffffffffffffffffffffffffffffff16036111fa576040517f08c379a00000000000000000000000000000000000000000000000000000000081526004016111f190614838565b60405180910390fd5b80915050919050565b7f000000000000000000000000000000000000000000000000000000000000000081565b60008073ffffffffffffffffffffffffffffffffffffffff168273ffffffffffffffffffffffffffffffffffffffff1603611297576040517f08c379a000000000000000000000000000000000000000000000000000000000815260040161128e906148ca565b60405180910390fd5b600360008373ffffffffffffffffffffffffffffffffffffffff1673ffffffffffffffffffffffffffffffffffffffff168152602001908152602001600020549050919050565b6112e661319a565b600b6000838152602001908152602001600020604051806101400160405290816000820154815260200160018201805461131f9061434b565b80601f016020809104026020016040519081016040528092919081815260200182805461134b9061434b565b80156113985780601f1061136d57610100808354040283529160200191611398565b820191906000526020600020905b81548152906001019060200180831161137b57829003601f168201915b505050505081526020016002820154815260200160038201548152602001600482015481526020016005820180546113cf9061434b565b80601f01602080910402602001604051908101604052809291908181526020018280546113fb9061434b565b80156114485780601f1061141d57610100808354040283529160200191611448565b820191906000526020600020905b81548152906001019060200180831161142b57829003601f168201915b505050505081526020016006820180546114619061434b565b80601f016020809104026020016040519081016040528092919081815260200182805461148d9061434b565b80156114da5780601f106114af576101008083540402835291602001916114da565b820191906000526020600020905b8154815290600101906020018083116114bd57829003601f168201915b505050505081526020016007820180546114f39061434b565b80601f016020809104026020016040519081016040528092919081815260200182805461151f9061434b565b801561156c5780601f106115415761010080835404028352916020019161156c565b820191906000526020600020905b81548152906001019060200180831161154f57829003601f168201915b505050505081526020016008820180546115859061434b565b80601f01602080910402602001604051908101604052809291908181526020018280546115b19061434b565b80156115fe5780601f106115d3576101008083540402835291602001916115fe565b820191906000526020600020905b8154815290600101906020018083116115e157829003601f168201915b505050505081526020016009820180546116179061434b565b80601f01602080910402602001604051908101604052809291908181526020018280546116439061434b565b80156116905780601f1061166557610100808354040283529160200191611690565b820191906000526020600020905b81548152906001019060200180831161167357829003601f168201915b5050505050815250509050919050565b7f000000000000000000000000000000000000000000000000000000000000000081565b600660009054906101000a900473ffffffffffffffffffffffffffffffffffffffff1673ffffffffffffffffffffffffffffffffffffffff163373ffffffffffffffffffffffffffffffffffffffff161461171e57600080fd5b60008511611761576040517f08c379a000000000000000000000000000000000000000000000000000000000815260040161175890614936565b60405180910390fd5b60076000815480929190611774906142d4565b91905055506040518060e001604052808781526020013073ffffffffffffffffffffffffffffffffffffffff168152602001858152602001868152602001848152602001600660009054906101000a900473ffffffffffffffffffffffffffffffffffffffff1673ffffffffffffffffffffffffffffffffffffffff16815260200160001515815250600a600060075481526020019081526020016000206000820151816000015560208201518160010160006101000a81548173ffffffffffffffffffffffffffffffffffffffff021916908373ffffffffffffffffffffffffffffffffffffffff16021790555060408201518160020155606082015181600301556080820151816004015560a08201518160050160006101000a81548173ffffffffffffffffffffffffffffffffffffffff021916908373ffffffffffffffffffffffffffffffffffffffff16021790555060c08201518160050160146101000a81548160ff021916908315150217905550905050600660009054906101000a900473ffffffffffffffffffffffffffffffffffffffff1673ffffffffffffffffffffffffffffffffffffffff163073ffffffffffffffffffffffffffffffffffffffff167f408c2ed0ccf18167c46bb0f14a75ceba209620d477b47783af0eed23639694ce88600a60006007548152602001908152602001600020600201548960405161198693929190614956565b60405180910390a350505050505050565b600660009054906101000a900473ffffffffffffffffffffffffffffffffffffffff1681565b60085481565b6060600180546119d29061434b565b80601f01602080910402602001604051908101604052809291908181526020018280546119fe9061434b565b8015611a4b5780601f10611a2057610100808354040283529160200191611a4b565b820191906000526020600020905b815481529060010190602001808311611a2e57829003601f168201915b5050505050905090565b600e6020528160005260406000206020528060005260406000206000915091509054906101000a900460ff1681565b611a96611a8f61249f565b838361292b565b5050565b611aab611aa561249f565b83612560565b611aea576040517f08c379a0000000000000000000000000000000000000000000000000000000008152600401611ae190614786565b60405180910390fd5b611af684848484612a97565b50505050565b6000611b0782611ede565b90506000600a60008481526020019081526020016000209050600083118015611b3257506007548311155b611b71576040517f08c379a0000000000000000000000000000000000000000000000000000000008152600401611b68906149d9565b60405180910390fd5b81341015611bb4576040517f08c379a0000000000000000000000000000000000000000000000000000000008152600401611bab90614a6b565b60405180910390fd5b8060050160149054906101000a900460ff1615611c06576040517f08c379a0000000000000000000000000000000000000000000000000000000008152600401611bfd90614ad7565b60405180910390fd5b8060050160009054906101000a900473ffffffffffffffffffffffffffffffffffffffff1673ffffffffffffffffffffffffffffffffffffffff166108fc82600301549081150290604051600060405180830381858888f19350505050158015611c74573d6000803e3d6000fd5b507f000000000000000000000000000000000000000000000000000000000000000073ffffffffffffffffffffffffffffffffffffffff166108fc826003015484611cbf91906142a0565b9081150290604051600060405180830381858888f19350505050158015611cea573d6000803e3d6000fd5b5060018160050160146101000a81548160ff0219169083151502179055508060010160009054906101000a900473ffffffffffffffffffffffffffffffffffffffff1673ffffffffffffffffffffffffffffffffffffffff166323b872dd303384600201546040518463ffffffff1660e01b8152600401611d6d93929190614af7565b600060405180830381600087803b158015611d8757600080fd5b505af1158015611d9b573d6000803e3d6000fd5b505050503373ffffffffffffffffffffffffffffffffffffffff168160050160009054906101000a900473ffffffffffffffffffffffffffffffffffffffff1673ffffffffffffffffffffffffffffffffffffffff168260010160009054906101000a900473ffffffffffffffffffffffffffffffffffffffff1673ffffffffffffffffffffffffffffffffffffffff167f8b4c9c8a607d67b321582dd8461041b1dc2ceeca70c8b7f37f8e02095cf2e76d60075485600201548660030154604051611e6993929190614956565b60405180910390a4505050565b6060611e8182612454565b6000611e8b612af3565b90506000815111611eab5760405180602001604052806000815250611ed6565b80611eb584612b0a565b604051602001611ec6929190614b6a565b6040516020818303038152906040525b915050919050565b600060647f00000000000000000000000000000000000000000000000000000000000000006064611f0f9190614b8e565b600a600085815260200190815260200160002060030154611f309190614bc2565b611f3a9190614c33565b9050919050565b8060a0015173ffffffffffffffffffffffffffffffffffffffff163373ffffffffffffffffffffffffffffffffffffffff1614611fb3576040517f08c379a0000000000000000000000000000000000000000000000000000000008152600401611faa90614cb0565b60405180910390fd5b8060c0015115611ff8576040517f08c379a0000000000000000000000000000000000000000000000000000000008152600401611fef90614d1c565b60405180910390fd5b81600a60008581526020019081526020016000206003018190555061201e333085610ecc565b3373ffffffffffffffffffffffffffffffffffffffff168160a0015173ffffffffffffffffffffffffffffffffffffffff16826020015173ffffffffffffffffffffffffffffffffffffffff167f8b4c9c8a607d67b321582dd8461041b1dc2ceeca70c8b7f37f8e02095cf2e76d600754856040015186606001516040516120a893929190614956565b60405180910390a4505050565b60606000821180156120c957506008548211155b612108576040517f08c379a00000000000000000000000000000000000000000000000000000000081526004016120ff90614251565b60405180910390fd5b600080600190505b60075481116121585783600a60008381526020019081526020016000206004015403612145578180612141906142d4565b9250505b8080612150906142d4565b915050612110565b5060008167ffffffffffffffff81111561217557612174613561565b5b6040519080825280602002602001820160405280156121ae57816020015b61219b6131ed565b8152602001906001900390816121935790505b509050600080600190505b600754811161232c5785600a6000838152602001908152602001600020600401540361231957600a60008281526020019081526020016000206040518060e0016040529081600082015481526020016001820160009054906101000a900473ffffffffffffffffffffffffffffffffffffffff1673ffffffffffffffffffffffffffffffffffffffff1673ffffffffffffffffffffffffffffffffffffffff1681526020016002820154815260200160038201548152602001600482015481526020016005820160009054906101000a900473ffffffffffffffffffffffffffffffffffffffff1673ffffffffffffffffffffffffffffffffffffffff1673ffffffffffffffffffffffffffffffffffffffff1681526020016005820160149054906101000a900460ff1615151515815250508383815181106122ff576122fe614d3c565b5b60200260200101819052508180612315906142d4565b9250505b8080612324906142d4565b9150506121b9565b50819350505050919050565b6000600560008473ffffffffffffffffffffffffffffffffffffffff1673ffffffffffffffffffffffffffffffffffffffff16815260200190815260200160002060008373ffffffffffffffffffffffffffffffffffffffff1673ffffffffffffffffffffffffffffffffffffffff16815260200190815260200160002060009054906101000a900460ff16905092915050565b60007f01ffc9a7000000000000000000000000000000000000000000000000000000007bffffffffffffffffffffffffffffffffffffffffffffffffffffffff1916827bffffffffffffffffffffffffffffffffffffffffffffffffffffffff1916149050919050565b612450828260405180602001604052806000815250612bd8565b5050565b61245d81612c33565b61249c576040517f08c379a000000000000000000000000000000000000000000000000000000000815260040161249390614838565b60405180910390fd5b50565b600033905090565b816004600083815260200190815260200160002060006101000a81548173ffffffffffffffffffffffffffffffffffffffff021916908373ffffffffffffffffffffffffffffffffffffffff160217905550808273ffffffffffffffffffffffffffffffffffffffff1661251a8361117d565b73ffffffffffffffffffffffffffffffffffffffff167f8c5be1e5ebec7d5bd14f71427d1e84f3dd0314c0f7b2291e5b200ac8c7c3b92560405160405180910390a45050565b60008061256c8361117d565b90508073ffffffffffffffffffffffffffffffffffffffff168473ffffffffffffffffffffffffffffffffffffffff1614806125ae57506125ad8185612338565b5b806125ec57508373ffffffffffffffffffffffffffffffffffffffff166125d484610bdd565b73ffffffffffffffffffffffffffffffffffffffff16145b91505092915050565b8273ffffffffffffffffffffffffffffffffffffffff166126158261117d565b73ffffffffffffffffffffffffffffffffffffffff161461266b576040517f08c379a000000000000000000000000000000000000000000000000000000000815260040161266290614ddd565b60405180910390fd5b600073ffffffffffffffffffffffffffffffffffffffff168273ffffffffffffffffffffffffffffffffffffffff16036126da576040517f08c379a00000000000000000000000000000000000000000000000000000000081526004016126d190614e6f565b60405180910390fd5b6126e78383836001612c74565b8273ffffffffffffffffffffffffffffffffffffffff166127078261117d565b73ffffffffffffffffffffffffffffffffffffffff161461275d576040517f08c379a000000000000000000000000000000000000000000000000000000000815260040161275490614ddd565b60405180910390fd5b6004600082815260200190815260200160002060006101000a81549073ffffffffffffffffffffffffffffffffffffffff02191690556001600360008573ffffffffffffffffffffffffffffffffffffffff1673ffffffffffffffffffffffffffffffffffffffff168152602001908152602001600020600082825403925050819055506001600360008473ffffffffffffffffffffffffffffffffffffffff1673ffffffffffffffffffffffffffffffffffffffff16815260200190815260200160002060008282540192505081905550816002600083815260200190815260200160002060006101000a81548173ffffffffffffffffffffffffffffffffffffffff021916908373ffffffffffffffffffffffffffffffffffffffff160217905550808273ffffffffffffffffffffffffffffffffffffffff168473ffffffffffffffffffffffffffffffffffffffff167fddf252ad1be2c89b69c2b068fc378daa952ba7f163c4a11628f55a4df523b3ef60405160405180910390a46128e98383836001612c7a565b505050565b60006002600083815260200190815260200160002060009054906101000a900473ffffffffffffffffffffffffffffffffffffffff169050919050565b8173ffffffffffffffffffffffffffffffffffffffff168373ffffffffffffffffffffffffffffffffffffffff1603612999576040517f08c379a000000000000000000000000000000000000000000000000000000000815260040161299090614edb565b60405180910390fd5b80600560008573ffffffffffffffffffffffffffffffffffffffff1673ffffffffffffffffffffffffffffffffffffffff16815260200190815260200160002060008473ffffffffffffffffffffffffffffffffffffffff1673ffffffffffffffffffffffffffffffffffffffff16815260200190815260200160002060006101000a81548160ff0219169083151502179055508173ffffffffffffffffffffffffffffffffffffffff168373ffffffffffffffffffffffffffffffffffffffff167f17307eab39ab6107e8899845ad3d59bd9653f200f220920489ca2b5937696c3183604051612a8a919061330c565b60405180910390a3505050565b612aa28484846125f5565b612aae84848484612c80565b612aed576040517f08c379a0000000000000000000000000000000000000000000000000000000008152600401612ae490614f6d565b60405180910390fd5b50505050565b606060405180602001604052806000815250905090565b606060006001612b1984612e07565b01905060008167ffffffffffffffff811115612b3857612b37613561565b5b6040519080825280601f01601f191660200182016040528015612b6a5781602001600182028036833780820191505090505b509050600082602001820190505b600115612bcd578080600190039150507f3031323334353637383961626364656600000000000000000000000000000000600a86061a8153600a8581612bc157612bc0614c04565b5b04945060008503612b78575b819350505050919050565b612be28383612f5a565b612bef6000848484612c80565b612c2e576040517f08c379a0000000000000000000000000000000000000000000000000000000008152600401612c2590614f6d565b60405180910390fd5b505050565b60008073ffffffffffffffffffffffffffffffffffffffff16612c55836128ee565b73ffffffffffffffffffffffffffffffffffffffff1614159050919050565b50505050565b50505050565b6000612ca18473ffffffffffffffffffffffffffffffffffffffff16613177565b15612dfa578373ffffffffffffffffffffffffffffffffffffffff1663150b7a02612cca61249f565b8786866040518563ffffffff1660e01b8152600401612cec9493929190614fe2565b6020604051808303816000875af1925050508015612d2857506040513d601f19601f82011682018060405250810190612d259190615043565b60015b612daa573d8060008114612d58576040519150601f19603f3d011682016040523d82523d6000602084013e612d5d565b606091505b506000815103612da2576040517f08c379a0000000000000000000000000000000000000000000000000000000008152600401612d9990614f6d565b60405180910390fd5b805181602001fd5b63150b7a0260e01b7bffffffffffffffffffffffffffffffffffffffffffffffffffffffff1916817bffffffffffffffffffffffffffffffffffffffffffffffffffffffff191614915050612dff565b600190505b949350505050565b600080600090507a184f03e93ff9f4daa797ed6e38ed64bf6a1f0100000000000000008310612e65577a184f03e93ff9f4daa797ed6e38ed64bf6a1f0100000000000000008381612e5b57612e5a614c04565b5b0492506040810190505b6d04ee2d6d415b85acef81000000008310612ea2576d04ee2d6d415b85acef81000000008381612e9857612e97614c04565b5b0492506020810190505b662386f26fc100008310612ed157662386f26fc100008381612ec757612ec6614c04565b5b0492506010810190505b6305f5e1008310612efa576305f5e1008381612ef057612eef614c04565b5b0492506008810190505b6127108310612f1f576127108381612f1557612f14614c04565b5b0492506004810190505b60648310612f425760648381612f3857612f37614c04565b5b0492506002810190505b600a8310612f51576001810190505b80915050919050565b600073ffffffffffffffffffffffffffffffffffffffff168273ffffffffffffffffffffffffffffffffffffffff1603612fc9576040517f08c379a0000000000000000000000000000000000000000000000000000000008152600401612fc0906150bc565b60405180910390fd5b612fd281612c33565b15613012576040517f08c379a000000000000000000000000000000000000000000000000000000000815260040161300990615128565b60405180910390fd5b613020600083836001612c74565b61302981612c33565b15613069576040517f08c379a000000000000000000000000000000000000000000000000000000000815260040161306090615128565b60405180910390fd5b6001600360008473ffffffffffffffffffffffffffffffffffffffff1673ffffffffffffffffffffffffffffffffffffffff16815260200190815260200160002060008282540192505081905550816002600083815260200190815260200160002060006101000a81548173ffffffffffffffffffffffffffffffffffffffff021916908373ffffffffffffffffffffffffffffffffffffffff160217905550808273ffffffffffffffffffffffffffffffffffffffff16600073ffffffffffffffffffffffffffffffffffffffff167fddf252ad1be2c89b69c2b068fc378daa952ba7f163c4a11628f55a4df523b3ef60405160405180910390a4613173600083836001612c7a565b5050565b6000808273ffffffffffffffffffffffffffffffffffffffff163b119050919050565b604051806101400160405280600081526020016060815260200160008152602001600081526020016000815260200160608152602001606081526020016060815260200160608152602001606081525090565b6040518060e0016040528060008152602001600073ffffffffffffffffffffffffffffffffffffffff168152602001600081526020016000815260200160008152602001600073ffffffffffffffffffffffffffffffffffffffff1681526020016000151581525090565b6000604051905090565b600080fd5b600080fd5b60007fffffffff0000000000000000000000000000000000000000000000000000000082169050919050565b6132a18161326c565b81146132ac57600080fd5b50565b6000813590506132be81613298565b92915050565b6000602082840312156132da576132d9613262565b5b60006132e8848285016132af565b91505092915050565b60008115159050919050565b613306816132f1565b82525050565b600060208201905061332160008301846132fd565b92915050565b6000819050919050565b61333a81613327565b811461334557600080fd5b50565b60008135905061335781613331565b92915050565b60008060006060848603121561337657613375613262565b5b600061338486828701613348565b935050602061339586828701613348565b92505060406133a686828701613348565b9150509250925092565b600081519050919050565b600082825260208201905092915050565b60005b838110156133ea5780820151818401526020810190506133cf565b60008484015250505050565b6000601f19601f8301169050919050565b6000613412826133b0565b61341c81856133bb565b935061342c8185602086016133cc565b613435816133f6565b840191505092915050565b6000602082019050818103600083015261345a8184613407565b905092915050565b60006020828403121561347857613477613262565b5b600061348684828501613348565b91505092915050565b600073ffffffffffffffffffffffffffffffffffffffff82169050919050565b60006134ba8261348f565b9050919050565b6134ca816134af565b82525050565b60006020820190506134e560008301846134c1565b92915050565b6134f4816134af565b81146134ff57600080fd5b50565b600081359050613511816134eb565b92915050565b6000806040838503121561352e5761352d613262565b5b600061353c85828601613502565b925050602061354d85828601613348565b9150509250929050565b600080fd5b600080fd5b7f4e487b7100000000000000000000000000000000000000000000000000000000600052604160045260246000fd5b613599826133f6565b810181811067ffffffffffffffff821117156135b8576135b7613561565b5b80604052505050565b60006135cb613258565b90506135d78282613590565b919050565b600067ffffffffffffffff8211156135f7576135f6613561565b5b613600826133f6565b9050602081019050919050565b82818337600083830152505050565b600061362f61362a846135dc565b6135c1565b90508281526020810184848401111561364b5761364a61355c565b5b61365684828561360d565b509392505050565b600082601f83011261367357613672613557565b5b813561368384826020860161361c565b91505092915050565b6000806000806000806000806000806101408b8d0312156136b0576136af613262565b5b60006136be8d828e01613348565b9a505060208b013567ffffffffffffffff8111156136df576136de613267565b5b6136eb8d828e0161365e565b99505060406136fc8d828e01613348565b985050606061370d8d828e01613348565b975050608061371e8d828e01613348565b96505060a08b013567ffffffffffffffff81111561373f5761373e613267565b5b61374b8d828e0161365e565b95505060c08b013567ffffffffffffffff81111561376c5761376b613267565b5b6137788d828e0161365e565b94505060e08b013567ffffffffffffffff81111561379957613798613267565b5b6137a58d828e0161365e565b9350506101008b013567ffffffffffffffff8111156137c7576137c6613267565b5b6137d38d828e0161365e565b9250506101208b013567ffffffffffffffff8111156137f5576137f4613267565b5b6138018d828e0161365e565b9150509295989b9194979a5092959850565b61381c81613327565b82525050565b60006020820190506138376000830184613813565b92915050565b60008060006060848603121561385657613855613262565b5b600061386486828701613502565b935050602061387586828701613502565b925050604061388686828701613348565b9150509250925092565b600080604083850312156138a7576138a6613262565b5b60006138b585828601613348565b92505060206138c685828601613348565b9150509250929050565b600081519050919050565b600082825260208201905092915050565b6000819050602082019050919050565b61390581613327565b82525050565b600061391783836138fc565b60208301905092915050565b6000602082019050919050565b600061393b826138d0565b61394581856138db565b9350613950836138ec565b8060005b83811015613981578151613968888261390b565b975061397383613923565b925050600181019050613954565b5085935050505092915050565b600060208201905081810360008301526139a88184613930565b905092915050565b6000819050919050565b60006139d56139d06139cb8461348f565b6139b0565b61348f565b9050919050565b60006139e7826139ba565b9050919050565b60006139f9826139dc565b9050919050565b613a09816139ee565b82525050565b6000613a1a8261348f565b9050919050565b613a2a81613a0f565b82525050565b600060e082019050613a45600083018a613813565b613a526020830189613a00565b613a5f6040830188613813565b613a6c6060830187613813565b613a796080830186613813565b613a8660a0830185613a21565b613a9360c08301846132fd565b98975050505050505050565b6000602082019050613ab46000830184613a21565b92915050565b600060208284031215613ad057613acf613262565b5b6000613ade84828501613502565b91505092915050565b600082825260208201905092915050565b6000613b03826133b0565b613b0d8185613ae7565b9350613b1d8185602086016133cc565b613b26816133f6565b840191505092915050565b600061014083016000830151613b4a60008601826138fc565b5060208301518482036020860152613b628282613af8565b9150506040830151613b7760408601826138fc565b506060830151613b8a60608601826138fc565b506080830151613b9d60808601826138fc565b5060a083015184820360a0860152613bb58282613af8565b91505060c083015184820360c0860152613bcf8282613af8565b91505060e083015184820360e0860152613be98282613af8565b915050610100830151848203610100860152613c058282613af8565b915050610120830151848203610120860152613c218282613af8565b9150508091505092915050565b60006020820190508181036000830152613c488184613b31565b905092915050565b6000613c5b826134af565b9050919050565b613c6b81613c50565b8114613c7657600080fd5b50565b600081359050613c8881613c62565b92915050565b613c97816132f1565b8114613ca257600080fd5b50565b600081359050613cb481613c8e565b92915050565b600080600080600080600060e0888a031215613cd957613cd8613262565b5b6000613ce78a828b01613c79565b9750506020613cf88a828b01613348565b9650506040613d098a828b01613348565b9550506060613d1a8a828b01613348565b9450506080613d2b8a828b01613348565b93505060a0613d3c8a828b01613502565b92505060c0613d4d8a828b01613ca5565b91505092959891949750929550565b60008060408385031215613d7357613d72613262565b5b6000613d8185828601613348565b9250506020613d9285828601613502565b9150509250929050565b60008060408385031215613db357613db2613262565b5b6000613dc185828601613502565b9250506020613dd285828601613ca5565b9150509250929050565b600067ffffffffffffffff821115613df757613df6613561565b5b613e00826133f6565b9050602081019050919050565b6000613e20613e1b84613ddc565b6135c1565b905082815260208101848484011115613e3c57613e3b61355c565b5b613e4784828561360d565b509392505050565b600082601f830112613e6457613e63613557565b5b8135613e74848260208601613e0d565b91505092915050565b60008060008060808587031215613e9757613e96613262565b5b6000613ea587828801613502565b9450506020613eb687828801613502565b9350506040613ec787828801613348565b925050606085013567ffffffffffffffff811115613ee857613ee7613267565b5b613ef487828801613e4f565b91505092959194509250565b600080fd5b613f0e81613a0f565b8114613f1957600080fd5b50565b600081359050613f2b81613f05565b92915050565b600060e08284031215613f4757613f46613f00565b5b613f5160e06135c1565b90506000613f6184828501613348565b6000830152506020613f7584828501613c79565b6020830152506040613f8984828501613348565b6040830152506060613f9d84828501613348565b6060830152506080613fb184828501613348565b60808301525060a0613fc584828501613f1c565b60a08301525060c0613fd984828501613ca5565b60c08301525092915050565b60008060006101208486031215613fff57613ffe613262565b5b600061400d86828701613348565b935050602061401e86828701613348565b925050604061402f86828701613f31565b9150509250925092565b600081519050919050565b600082825260208201905092915050565b6000819050602082019050919050565b61406e816139ee565b82525050565b61407d81613a0f565b82525050565b61408c816132f1565b82525050565b60e0820160008201516140a860008501826138fc565b5060208201516140bb6020850182614065565b5060408201516140ce60408501826138fc565b5060608201516140e160608501826138fc565b5060808201516140f460808501826138fc565b5060a082015161410760a0850182614074565b5060c082015161411a60c0850182614083565b50505050565b600061412c8383614092565b60e08301905092915050565b6000602082019050919050565b600061415082614039565b61415a8185614044565b935061416583614055565b8060005b8381101561419657815161417d8882614120565b975061418883614138565b925050600181019050614169565b5085935050505092915050565b600060208201905081810360008301526141bd8184614145565b905092915050565b600080604083850312156141dc576141db613262565b5b60006141ea85828601613502565b92505060206141fb85828601613502565b9150509250929050565b7f496e76616c6964206f63636173696f6e49640000000000000000000000000000600082015250565b600061423b6012836133bb565b915061424682614205565b602082019050919050565b6000602082019050818103600083015261426a8161422e565b9050919050565b7f4e487b7100000000000000000000000000000000000000000000000000000000600052601160045260246000fd5b60006142ab82613327565b91506142b683613327565b92508282039050818111156142ce576142cd614271565b5b92915050565b60006142df82613327565b91507fffffffffffffffffffffffffffffffffffffffffffffffffffffffffffffffff820361431157614310614271565b5b600182019050919050565b7f4e487b7100000000000000000000000000000000000000000000000000000000600052602260045260246000fd5b6000600282049050600182168061436357607f821691505b6020821081036143765761437561431c565b5b50919050565b7f4552433732313a20617070726f76616c20746f2063757272656e74206f776e6560008201527f7200000000000000000000000000000000000000000000000000000000000000602082015250565b60006143d86021836133bb565b91506143e38261437c565b604082019050919050565b60006020820190508181036000830152614407816143cb565b9050919050565b7f4552433732313a20617070726f76652063616c6c6572206973206e6f7420746f60008201527f6b656e206f776e6572206f7220617070726f76656420666f7220616c6c000000602082015250565b600061446a603d836133bb565b91506144758261440e565b604082019050919050565b600060208201905081810360008301526144998161445d565b9050919050565b60008190508160005260206000209050919050565b60006020601f8301049050919050565b600082821b905092915050565b6000600883026145027fffffffffffffffffffffffffffffffffffffffffffffffffffffffffffffffff826144c5565b61450c86836144c5565b95508019841693508086168417925050509392505050565b600061453f61453a61453584613327565b6139b0565b613327565b9050919050565b6000819050919050565b61455983614524565b61456d61456582614546565b8484546144d2565b825550505050565b600090565b614582614575565b61458d818484614550565b505050565b5b818110156145b1576145a660008261457a565b600181019050614593565b5050565b601f8211156145f6576145c7816144a0565b6145d0846144b5565b810160208510156145df578190505b6145f36145eb856144b5565b830182614592565b50505b505050565b600082821c905092915050565b6000614619600019846008026145fb565b1980831691505092915050565b60006146328383614608565b9150826002028217905092915050565b61464b826133b0565b67ffffffffffffffff81111561466457614663613561565b5b61466e825461434b565b6146798282856145b5565b600060209050601f8311600181146146ac576000841561469a578287015190505b6146a48582614626565b86555061470c565b601f1984166146ba866144a0565b60005b828110156146e2578489015182556001820191506020850194506020810190506146bd565b868310156146ff57848901516146fb601f891682614608565b8355505b6001600288020188555050505b505050505050565b7f4552433732313a2063616c6c6572206973206e6f7420746f6b656e206f776e6560008201527f72206f7220617070726f76656400000000000000000000000000000000000000602082015250565b6000614770602d836133bb565b915061477b82614714565b604082019050919050565b6000602082019050818103600083015261479f81614763565b9050919050565b600081905092915050565b50565b60006147c16000836147a6565b91506147cc826147b1565b600082019050919050565b60006147e2826147b4565b9150819050919050565b7f4552433732313a20696e76616c696420746f6b656e2049440000000000000000600082015250565b60006148226018836133bb565b915061482d826147ec565b602082019050919050565b6000602082019050818103600083015261485181614815565b9050919050565b7f4552433732313a2061646472657373207a65726f206973206e6f74206120766160008201527f6c6964206f776e65720000000000000000000000000000000000000000000000602082015250565b60006148b46029836133bb565b91506148bf82614858565b604082019050919050565b600060208201905081810360008301526148e3816148a7565b9050919050565b7f5072696365206d7573742062652067726561746572207468616e207a65726f00600082015250565b6000614920601f836133bb565b915061492b826148ea565b602082019050919050565b6000602082019050818103600083015261494f81614913565b9050919050565b600060608201905061496b6000830186613813565b6149786020830185613813565b6149856040830184613813565b949350505050565b7f5469636b657420646f65736e2774206578697374000000000000000000000000600082015250565b60006149c36014836133bb565b91506149ce8261498d565b602082019050919050565b600060208201905081810360008301526149f2816149b6565b9050919050565b7f6e6f7420656e6f75676820657468657220746f20636f766572207469636b657460008201527f20707269636520616e64206d61726b6574206665650000000000000000000000602082015250565b6000614a556035836133bb565b9150614a60826149f9565b604082019050919050565b60006020820190508181036000830152614a8481614a48565b9050919050565b7f7469636b657420616c726561647920736f6c6400000000000000000000000000600082015250565b6000614ac16013836133bb565b9150614acc82614a8b565b602082019050919050565b60006020820190508181036000830152614af081614ab4565b9050919050565b6000606082019050614b0c60008301866134c1565b614b1960208301856134c1565b614b266040830184613813565b949350505050565b600081905092915050565b6000614b44826133b0565b614b4e8185614b2e565b9350614b5e8185602086016133cc565b80840191505092915050565b6000614b768285614b39565b9150614b828284614b39565b91508190509392505050565b6000614b9982613327565b9150614ba483613327565b9250828201905080821115614bbc57614bbb614271565b5b92915050565b6000614bcd82613327565b9150614bd883613327565b9250828202614be681613327565b91508282048414831517614bfd57614bfc614271565b5b5092915050565b7f4e487b7100000000000000000000000000000000000000000000000000000000600052601260045260246000fd5b6000614c3e82613327565b9150614c4983613327565b925082614c5957614c58614c04565b5b828204905092915050565b7f596f7520646f206e6f74206f776e2074686973207469636b6574000000000000600082015250565b6000614c9a601a836133bb565b9150614ca582614c64565b602082019050919050565b60006020820190508181036000830152614cc981614c8d565b9050919050565b7f5469636b65742068617320616c7265616479206265656e20736f6c6400000000600082015250565b6000614d06601c836133bb565b9150614d1182614cd0565b602082019050919050565b60006020820190508181036000830152614d3581614cf9565b9050919050565b7f4e487b7100000000000000000000000000000000000000000000000000000000600052603260045260246000fd5b7f4552433732313a207472616e736665722066726f6d20696e636f72726563742060008201527f6f776e6572000000000000000000000000000000000000000000000000000000602082015250565b6000614dc76025836133bb565b9150614dd282614d6b565b604082019050919050565b60006020820190508181036000830152614df681614dba565b9050919050565b7f4552433732313a207472616e7366657220746f20746865207a65726f2061646460008201527f7265737300000000000000000000000000000000000000000000000000000000602082015250565b6000614e596024836133bb565b9150614e6482614dfd565b604082019050919050565b60006020820190508181036000830152614e8881614e4c565b9050919050565b7f4552433732313a20617070726f766520746f2063616c6c657200000000000000600082015250565b6000614ec56019836133bb565b9150614ed082614e8f565b602082019050919050565b60006020820190508181036000830152614ef481614eb8565b9050919050565b7f4552433732313a207472616e7366657220746f206e6f6e20455243373231526560008201527f63656976657220696d706c656d656e7465720000000000000000000000000000602082015250565b6000614f576032836133bb565b9150614f6282614efb565b604082019050919050565b60006020820190508181036000830152614f8681614f4a565b9050919050565b600081519050919050565b600082825260208201905092915050565b6000614fb482614f8d565b614fbe8185614f98565b9350614fce8185602086016133cc565b614fd7816133f6565b840191505092915050565b6000608082019050614ff760008301876134c1565b61500460208301866134c1565b6150116040830185613813565b81810360608301526150238184614fa9565b905095945050505050565b60008151905061503d81613298565b92915050565b60006020828403121561505957615058613262565b5b60006150678482850161502e565b91505092915050565b7f4552433732313a206d696e7420746f20746865207a65726f2061646472657373600082015250565b60006150a66020836133bb565b91506150b182615070565b602082019050919050565b600060208201905081810360008301526150d581615099565b9050919050565b7f4552433732313a20746f6b656e20616c7265616479206d696e74656400000000600082015250565b6000615112601c836133bb565b915061511d826150dc565b602082019050919050565b6000602082019050818103600083015261514181615105565b905091905056fea264697066735822122002fae097ecda0f96916f99d0d3683dab602342ef59b3363eba61a361f43f655864736f6c63430008110033",
  "linkReferences": {},
  "deployedLinkReferences": {}
}